:020000040800F2
:10000000000002206D020008BD020008BD020008C9
:10001000BD020008BD020008BD020008000000008B
:10002000000000000000000000000000BD02000809
:10003000BD02000800000000BD020008BD0200086B
:10004000BD020008BD020008BD020008BD02000894
:10005000BD020008BD020008BD020008BD02000884
:10006000BD020008BD020008BD020008BD02000874
:10007000BD020008BD020008BD020008BD02000864
:10008000BD020008BD020008BD020008BD02000854
:10009000BD020008BD020008BD020008BD02000844
:1000A000BD020008BD020008BD020008BD02000834
:1000B000BD020008BD020008BD020008BD02000824
:1000C000BD020008BD020008BD020008BD02000814
:1000D000BD020008BD020008BD020008BD02000804
:1000E000BD020008BD020008BD020008BD020008F4
:1000F000BD020008BD020008BD020008BD020008E4
:10010000BD020008BD020008BD020008BD020008D3
:10011000BD020008BD020008BD020008BD020008C3
:10012000BD020008BD020008BD020008BD020008B3
:10013000BD020008BD020008BD020008BD020008A3
:10014000BD020008BD020008BD020008BD02000893
:10015000BD020008BD020008BD020008BD02000883
:10016000BD020008BD020008BD020008BD02000873
:10017000BD020008BD020008BD020008BD02000863
:10018000BD020008BD02000810B5054C237833B944
:10019000044B13B10448AFF300800123237010BD5A
:1001A000FC09002000000000C0330008084B10B517
:1001B0001BB108480849AFF300800848036803B939
:1001C00010BD074B002BFBD0BDE81040184700BF07
:1001D00000000000C0330008000A0020F8090020D9
:1001E00000000000154B002B08BF134B9D46A3F5E4
:1001F000803A00218B460F461348144A121A02F027
:1002000099FA0F4B002B00D098470E4B002B00D0D3
:1002100098470020002104000D000D48002802D05E
:100220000C4802F00BFC02F0C3F92000290001F099
:10023000B7F902F0ADF900BF00000800000002208D
:100240000000000000000000FC090020540A00200B
:100250003D2A0008492A0008B0340008980100200F
:10026000FC090020FC090020540A0020002103E0C2
:100270000C4B5B58435004310B480C4B42189A42CC
:10028000F6D30B4AFFE7002342F8043B094B9A429E
:10029000F9D30948016841F47001016001F080F967
:1002A00070470000B034000898010020FC090020CD
:1002B000FC090020540A002088ED00E0FEE7000061
:1002C00080B500AF154A154BD3F8883043F470035E
:1002D000C2F88830124A124B1B6843F001031360C6
:1002E0000F4B00229A600E4A0D4B1B6823F084735B
:1002F00023F4803313600A4B0A4A5A60084A084BB9
:100300001B6823F480231360054B0022DA6000F0A1
:1003100087F8024B4FF000629A6080BD00ED00E06C
:10032000003802401030002480B487B000AF0023B2
:100330003B6100237B610223FB600023BB6002233F
:100340007B60324B9B6803F00C033B613B69042BE1
:1003500007D0082B09D0002B3FD12D4B2D4A1A6016
:100360003FE02B4B2C4A1A603BE0284B5B6803F4C0
:1003700080039B0DBB60254B5B6803F03F037B60F4
:10038000BB68002B0DD0244A7B68B2FBF3F21F4BF5
:10039000596847F6C0730B409B0903FB02F37B616E
:1003A0000CE01C4A7B68B2FBF3F2184B596847F625
:1003B000C0730B409B0903FB02F37B61134B5B682B
:1003C00003F440331B0C01335B00FB607A69FB686C
:1003D000B2FBF3F30E4A136003E00D4B0D4A1A60B3
:1003E00000BF0A4B9B6803F0F0031B090B4AD35C68
:1003F000DBB23B61064B1A683B6922FA03F3044AFD
:1004000013601C37BD465DF8047B7047003802401E
:100410009C0100200024F40000127A00A0010020BA
:1004200080B483B000AF00237B6000233B60634A4D
:10043000624B1B6843F480331360604B1B6803F40A
:1004400000333B607B6801337B603B68002B03D14A
:100450007B68B3F5A06FF0D1584B1B6803F40033F1
:10046000002B02D001233B6001E000233B603B688E
:10047000012B48D1514A514B1B6C43F080531364FC
:100480004F4A4F4B1B6843F4804313604B4A4B4B1E
:100490009B689360494A494B9B6843F400439360CF
:1004A000464A464B9B6843F4A0539360434A454BEE
:1004B0009B0143F0E06343F0100353603F4A3F4B1E
:1004C0001B6843F08073136000BF3C4B1B6803F054
:1004D0000073002BF9D03C4B40F205621A60374A9A
:1004E000364B9B6823F003039360344A334B9B687D
:1004F00043F00203936000BF304B9B6803F00C0392
:10050000082BF9D155E02D4A2C4B1B6823F084733E
:1005100023F480331360294A284B1B6843F00103FE
:100520001360264A254B1B6C43F080531364244A06
:10053000234B1B6843F480431360204A1F4B9B6886
:1005400093601E4A1D4B9B6843F4004393601B4A13
:100550001A4B9B6843F4A0539360184A194B9B01B4
:1005600043F0E06343F010035360144A134B1B68DD
:1005700043F08073136000BF104B1B6803F00073DF
:10058000002BF9D0104B40F205621A600B4A0B4B5E
:100590009B6823F003039360084A084B9B6843F071
:1005A0000203936000BF054B9B6803F00C03082B0C
:1005B000F9D10C37BD465DF8047B70470038024026
:1005C000007000400048E801003C024080B485B063
:1005D00000AF786039607B683A681A603B68114AFE
:1005E000934209D03B68104A934202D14FF4007302
:1005F00004E04FF4806301E04FF48073FB600B492B
:100600000A4B5A6CFB6813434B643B689B6843F08E
:1006100001023B689A607B6818461437BD465DF856
:10062000047B704700200140002101400038024057
:1006300080B485B000AF786039607B681B683A6829
:100640005A637B681B687A681268926842F080423D
:100650009A6000BF7B681B681B6803F00203002BD5
:100660000CBF01230023DBB2002BF3D17B681B6896
:10067000DB6CFB6018461437BD465DF8047B7047A1
:1006800080B487B000AFF860B9607A60FB70FB6837
:100690005B6801229A40FB68DA60FB68BA681A60FE
:1006A000FB687A685A60FB68FA781A72BB68934AEA
:1006B000934231D0BB68924A93422BD0BB68914A97
:1006C000934225D0BB68904A93421FD0BB688F4AA3
:1006D000934219D0BB688E4A934213D0BB688D4AAF
:1006E00093420DD0BB688C4A934207D0BB688B4ABB
:1006F000934201D1082310E009230EE007230CE008
:1007000006230AE0052308E0042306E0032304E0AF
:10071000022302E0012300E000237B618049804B3B
:100720001A6B01207B6900FA03F313430B63FB7818
:10073000002B51D1FB681B68FA6812681168FA68CF
:1007400052685200032000FA02F2D2430A401A60B3
:10075000FB681B68FA6812681168FA6852685200F0
:10076000012000FA02F20A431A60FB681B68FA686B
:1007700012685168FA685268012000FA02F2D24306
:100780000A405A60FB681B68FA6812689168FA6848
:1007900052685200032000FA02F2D2430A409A60E3
:1007A000FB681B68FA6812689168FA685268520020
:1007B000022000FA02F20A439A60FB681B68FA689A
:1007C0001268D168FA6852685200032000FA02F2F7
:1007D000D2430A40DA60F7E0FB78012B45D1FB6891
:1007E0001B68FA6812681168FA68526852000320A0
:1007F00000FA02F2D2430A401A60FB681B68FA68EA
:1008000012685168FA6852685200012000FA02F238
:10081000D2430A405A60FB681B68FA681268916804
:10082000FA6852685200032000FA02F2D2430A40EA
:100830009A60FB681B68FA6812689168FA685268E7
:100840005200022000FA02F20A439A60FB681B6819
:10085000FA681268D168FA6852685200032000FAF8
:1008600002F2D2430A40DA60AEE0FB78022B59D1A3
:10087000FB681B68FA6812681168FA6852685200CF
:10088000032000FA02F20A431A60FB681B68FA6848
:1008900012685168FA6852685200012000FA02F2A8
:1008A000D2430A405A60FB681B68FA681268916874
:1008B000FA6852685200032000FA02F2D2430A405A
:1008C0009A60FB681B68FA6812689168FA68526857
:1008D0005200022000FA02F20A439A60FB681B6889
:1008E000FA681268D168FA6852685200032000FA68
:1008F00002F2D2430A40DA6066E000BF0000024024
:100900000004024000080240000C024000100240B7
:100910000014024000180240001C02400020024067
:1009200000380240FB681B68FA6812681168FA68B0
:1009300052685200032000FA02F2D2430A401A60C1
:10094000FB681B68FA6812681168FA6852685200FE
:10095000022000FA02F20A431A60FB681B68FA6878
:1009600012685168FA6852685200012000FA02F2D7
:10097000D2430A405A60FB681B68FA6812689168A3
:10098000FA6852685200032000FA02F2D2430A4089
:100990009A60FB681B68FA6812689168FA68526886
:1009A0005200022000FA02F20A439A60FB681B68B8
:1009B000FA681268D168FA6852685200032000FA97
:1009C00002F2D2430A40DA60FB6818461C37BD4683
:1009D0005DF8047B704700BF80B483B000AF7860DF
:1009E0000B46FB70FB78002B1BD17B681B687A6879
:1009F000126811687A6852685200032000FA02F205
:100A0000D2430A401A607B681B687A6812681168D2
:100A10007A6852685200012000FA02F20A431A6012
:100A200043E0FB78012B0ED17B681B687A68126863
:100A300011687A6852685200032000FA02F2D24329
:100A40000A401A6031E0FB78022B0DD17B681B68ED
:100A50007A68126811687A6852685200032000FAB6
:100A600002F20A431A6020E0FB78032B1BD17B685B
:100A70001B687A68126811687A685268520003200D
:100A800000FA02F2D2430A401A607B681B687A6857
:100A9000126811687A6852685200022000FA02F265
:100AA0000A431A6001E0002300E0012318460C37D6
:100AB000BD465DF8047B704780B483B000AF7860BA
:100AC00039603B68002B06D07B681B687A68D26867
:100AD00092B21A8305E07B681B687A68D26892B28A
:100AE0005A83012318460C37BD465DF8047B7047D6
:100AF00080B483B000AF78607B681B681A697B683C
:100B00005B6822FA03F303F0010318460C37BD4675
:100B10005DF8047B704700BF80B487B000AFF86019
:100B2000B9607A60FB68BA681A60FB687A685A60D4
:100B3000BB68B3F1804F2BD0BB684A4A934225D0A3
:100B4000BB68494A93421FD0BB68484A934219D0B8
:100B5000BB68474A934213D0BB68464A93420DD0C4
:100B6000BB68454A934207D0BB68444A934201D1CF
:100B700007230EE008230CE006230AE0052308E023
:100B8000042306E0032304E0022302E0012300E043
:100B900000233B613A493A4B1A6C01203B6900FA49
:100BA00003F313430B64BB689B8A9BB243F00103BE
:100BB0009AB2BB689A82BB681B8D9BB201331A46FE
:100BC000304BB3FBF2F27B68B2FBF3F2BB68DA6244
:100BD0004FF6FF737B61BB68B3F1804F03D0BB68F6
:100BE000224A934202D14FF0FF337B61FB687A695E
:100BF0009A6013E0BB681B8D9BB201339AB2BB684D
:100C00001A85BB681B8D9BB201331A461D4BB3FB83
:100C1000F2F27B68B2FBF3F2BB68DA62BB68DA6AB5
:100C20007B699A428CBF01230023DBB2002BE1D108
:100C3000FB681B68FA681268128892B242F0800260
:100C400092B21A80BB681B889BB243F001039AB230
:100C5000BB681A80FB6818461C37BD465DF8047BEC
:100C6000704700BF0004004000080040000C004036
:100C7000001000400014004000180040001C00401C
:100C8000003802400024F40080B483B000AF7860E4
:100C900039607B681B6800221A857B681B687A684C
:100CA0001268128D92B201321146174AB2FBF1F16D
:100CB0003A68B1FBF2F2DA6215E07B681B681A8DC4
:100CC00092B2013292B21A857B681B687A68126808
:100CD000128D92B2013211460B4AB2FBF1F13A6821
:100CE000B1FBF2F2DA627B681B68DB6A7A689268B1
:100CF00093422CBF01230023DBB2002BDDD10C3744
:100D0000BD465DF8047B70470024F40080B483B0D6
:100D100000AF786039607B681B6800221A857B68A9
:100D20001B683A68DA627B681B681B8D9BB20133D3
:100D30001A46074BB3FBF2F23B68B2FBF3F31A46D9
:100D40007B685A600C37BD465DF8047B704700BF76
:100D50000024F400B0B487B000AFF860B9607A60E6
:100D6000FB70FB681B68FA681268128C91B2BA6853
:100D7000013A9200012000FA02F292B2D24392B2FA
:100D80000A4092B21A84FB681B68704A93421DD0D5
:100D9000FB681B68B3F1804F16D0FB681B686C4A78
:100DA00093420FD0FB681B686A4A934208D0FB68E5
:100DB0001B68694A934201D1022308E0032306E03D
:100DC000022304E0022302E0012300E00123FB757B
:100DD0007B681B687A685268072ACCBF0122002210
:100DE000D2B214467A681268796849680729CCBF7C
:100DF00001210021C9B2083152F8212079684868E0
:100E000079684968072901DD082100E00021411ABD
:100E100089000F2000FA01F1C943114004F10802D2
:100E200043F822107B681B687A685268072ACCBF97
:100E300001220022D2B215467A68126879684968A0
:100E40000729CCBF01210021C9B2083152F8212065
:100E5000F87D79684C6879684968072901DD0821BF
:100E600000E00021611A890000FA01F1114305F147
:100E7000080243F82210BB68013B032B36D801A2BD
:100E800052F823F0950E0008AB0E0008C10E0008C2
:100E9000D70E0008FB681B68FA681268128B92B2C2
:100EA00042F0710292B21A8320E0FB681B68FA6874
:100EB0001268128B92B242F4E24292B21A8315E0A7
:100EC000FB681B68FA681268928B92B242F071025A
:100ED00092B29A830AE0FB681B68FA681268928BE8
:100EE00092B242F4E24292B29A8300BFFB78002BA6
:100EF0000BD0FB78012B06D0FB78022B01D1052308
:100F000004E0002302E0012300E00023BB75BB7D69
:100F10005B00DBB243F00103DBB27B75FB681B684F
:100F2000FA681268128C92B290B2797DBA68013A6E
:100F3000920001FA02F292B201460A4392B292B2D0
:100F40001A841C37BD46B0BC704700BF000001408A
:100F50000004004000080040000C004080B483B052
:100F600000AF786039603B68013B032B1AD801A2BF
:100F700052F823F0850F00088D0F0008950F000828
:100F80009D0F00087B681B685B6B0BE07B681B6830
:100F90009B6B07E07B681B68DB6B03E07B681B686F
:100FA0001B6CFFE718460C37BD465DF8047B7047A5
:100FB000B0B487B000AFF860B9607A60BB68013B3D
:100FC0009B007B61FB681B68FA681268128C91B207
:100FD00001207A6900FA02F292B20A4392B21A84AC
:100FE000BB68013B032B37D801A252F823F000BFA6
:100FF00001100008171000082D1000084310000809
:10100000FB681B68FA681268128B92B242F06802A1
:1010100092B21A8320E0FB681B68FA681268128B90
:1010200092B242F4D04292B21A8315E0FB681B6878
:10103000FA681268928B92B242F0680292B29A8376
:101040000AE0FB681B68FA681268928B92B242F45D
:10105000D04292B29A8300BFFB681B68414A934218
:101060001DD0FB681B68B3F1804F16D0FB681B686E
:101070003D4A93420FD0FB681B683C4A934208D01C
:10108000FB681B683A4A934201D1022308E003231C
:1010900006E0022304E0022302E0012300E0012332
:1010A000FB747B681B687A685268072ACCBF0122F0
:1010B0000022D2B214467A68126879684968072912
:1010C000CCBF01210021C9B2083152F82120796832
:1010D000486879684968072901DD082100E0002196
:1010E000411A89000F2000FA01F1C943114004F1AF
:1010F000080243F822107B681B687A685268072A46
:10110000CCBF01220022D2B215467A6812687968F3
:1011100049680729CCBF01210021C9B2083152F822
:101120002120F87C79684C6879684968072901DDD5
:10113000082100E00021611A890000FA01F1114341
:1011400005F1080243F82210FB681B68FA68126870
:10115000928A92B242F0010292B29A821C37BD4644
:10116000B0BC70470000014000040040000800408F
:10117000000C004080B487B000AFF860B9607A60BE
:101180007B68642B00DD2DE0FB681B68DB6A7A68F6
:1011900002FB03F3164AA2FB03235B097B61BB68D6
:1011A000013B032B1ED801A252F823F0BD11000809
:1011B000C7110008D1110008DB110008FB681B688B
:1011C0007A695A630EE0FB681B687A699A6309E0E2
:1011D000FB681B687A69DA6304E0FB681B687A695C
:1011E0001A6400BF1C37BD465DF8047B704700BF22
:1011F0001F85EB5180B487B000AFF860B9607A60AA
:10120000FB68BA681A6000237B61BB68284A934276
:101210000BD0BB68274A934207D0BB68264A93424B
:1012200003D0BB68254A93421CD12549244B1A6C34
:10123000BB681F48834210D0BB681E48834209D058
:10124000BB681D48834202D14FF4002307E04FF4EE
:10125000801304E04FF4802301E04FF40033134384
:101260000B640BE01649164B5A6CBB681548834259
:1012700001D1102300E0202313434B64BB689B89FA
:101280009BB243F400539AB2BB689A817B68B3F572
:10129000165F04D1BB6840F283621A8100E000BF90
:1012A000FB6818461C37BD465DF8047B704700BFDD
:1012B0000044004000480040004C00400050004006
:1012C0000038024000100140B0B487B000AFF860B1
:1012D000B9607A60FB681B68664A93421DD0FB6860
:1012E0001B68654A934216D0FB681B68634A9342A9
:1012F0000FD0FB681B68624A934208D0FB681B68EA
:10130000604A934201D1072308E0082306E008233E
:1013100004E0072302E0072300E00723FB75BB6816
:101320001B68BA685268072ACCBF01220022D2B2D9
:101330001446BA681268B96849680729CCBF012108
:101340000021C9B2083152F82120B9684868B9684B
:101350004968072901DD082100E00021411A8900C0
:101360000F2000FA01F1C943114004F1080243F8CB
:101370002210BB681B68BA685268072ACCBF0122DA
:101380000022D2B21546BA681268B96849680729BE
:10139000CCBF01210021C9B2083152F82120F87DCB
:1013A000B9684C68B9684968072901DD082100E07F
:1013B0000021611A890000FA01F1114305F10802C8
:1013C00043F822107B681B687A685268072ACCBFF2
:1013D00001220022D2B214467A68126879684968FC
:1013E0000729CCBF01210021C9B2083152F82120C0
:1013F0007968486879684968072901DD082100E0B3
:101400000021411A89000F2000FA01F1C94311405F
:1014100004F1080243F822107B681B687A6852685E
:10142000072ACCBF01220022D2B215467A68126880
:10143000796849680729CCBF01210021C9B2083168
:1014400052F82120F87D79684C6879684968072945
:1014500001DD082100E00021611A890000FA01F194
:10146000114305F1080243F822101C37BD46B0BCF9
:10147000704700BF00100140004400400048004099
:10148000004C00400050004080B483B000AF786052
:101490000B46FB7000BF7B681B681B889BB29B11CF
:1014A000002B0CBF01230023DBB2002BF3D17B68A0
:1014B0001B687A681268928992B242F0080292B26E
:1014C0009A817B681B687A681268928891B2FA7870
:1014D00092B20A4392B29A8000BF7B681B681B8855
:1014E0009BB29B11002B0CBF01230023DBB2002B0E
:1014F000F3D10C37BD465DF8047B704780B582B0F0
:1015000000AF7860396000BF7B681B681B889BB2A6
:101510009B11002B0CBF01230023DBB2002BF3D166
:101520007B681B687A681268928992B242F008025E
:1015300092B29A8108E03B681B7878681946FFF7F9
:10154000A3FF3B6801333B603B681B78002BF2D163
:101550000837BD4680BD00BF80B485B000AF78605D
:101560000EE04FF47A73FB6002E0FB68013BFB6026
:10157000FB68002BCCBF01230023DBB2002BF4D18E
:101580007B685A1E7A60002B14BF01230023DBB254
:10159000002BE6D11437BD465DF8047B704700BFD1
:1015A00080B588B000AF07F11003184615490F2227
:1015B0000023FFF765F83B46184612490322002333
:1015C000FFF75EF807F1100318460121FFF774FAE0
:1015D0003B4618460121FFF76FFA4FF4FA70FFF708
:1015E000BBFF07F1100318460021FFF765FA3B46E1
:1015F00018460021FFF760FA4FF4FA70FFF7ACFFCE
:10160000E0E700BF0000024003685A004CBF43F00F
:10161000004323F000431844704700BF2DE9F04F0A
:1016200083B099B34B1E1746054601939846002692
:1016300006EB080404EBD47464104FEAC40A05EB0B
:101640000A0B5846FFF7E0FF019B8146A3420AF1CF
:10165000080028440ED0FFF7D7FFB94500F1FF304E
:1016600004D9B4420CD004F1FF38E1E7B84203D208
:10167000661CDDE7B945F4D8584603B0BDE8F08FE5
:101680004FF0000B584603B0BDE8F08F8B4658462C
:1016900003B0BDE8F08F00BF012807D0022807D0B3
:1016A000044B00280CBF18460020704702487047C2
:1016B00002487047A51D0008A91D0008AD1D0008BF
:1016C00030B5244B83B004468D1E7BB3284601A958
:1016D000AFF3008020B301992A46FFF79FFF05462C
:1016E000F0B1FFF791FF6B68A064012B12D0002BC3
:1016F00005F1040020DBFFF787FF0023E06423658A
:101700000368002B1CDBFFF77FFF002320611846D6
:1017100003B030BD002323610523184603B030BD5C
:10172000002323610923184603B030BD0A490B4842
:10173000091AC9100191CFE70123E0642365DFE7AF
:10174000C3F30360FFF7A8FF002820610CBF092343
:101750000023DCE700000000B0340008E833000894
:101760000368DA0710B5044606D49B0700F1480069
:1017700009D500F085FC2368590709D51A070ED54D
:10178000DB0613D510BD00F073FC23685907F5D4B0
:1017900004F1D00000F07CFC23681A07F0D404F5B3
:1017A000A87000F07DFC2368DB06EBD404F5E8703C
:1017B000BDE8104000F0B8BC03680BB11844704796
:1017C0001846704709207047704700BF70B504463F
:1017D0000D4608E02B6C63610120236921462A46EF
:1017E0009847082808D12046296CFFF769FF06466C
:1017F0000028EFD000F0C4FE0728FBD13046296C4A
:10180000FFF7E2FF281D00F027FC00BF2DE9F0479D
:101810000C1D064617460FCCADF5727D03AD0FC506
:101820000FCC0FC50FCC0FC594E80F0002AC4FF0E2
:10183000000ED6F80C80D6F8189085E80F003046D8
:10184000216CC4F800E0FFF73BFF002F05460CBFFA
:1018500009270A277DB1A36B47F010018DE810021C
:101860000120636432463346C04778BB28460DF5F5
:10187000727DBDE8F087236C736121464FF4F072EE
:101880007AA800F0BDFE336931467AAA38469847F7
:10189000889B82468DE810023946636401203246F7
:1018A0003346C04790B920467AA94FF4F07200F051
:1018B000A7FEBAF1080F06D13046216CFFF700FFF2
:1018C00009270546C6E7BAF1070F04D009200DF530
:1018D000727DBDE8F0872846216CFFF775FF03A8ED
:1018E00000F0BAFB406C7047F0B5CB6B0B640E1D7B
:1018F0000F4604460FCEF9B001AD0FC50FCE0FC590
:101900000FCE0FC596E80F004FF0FF3685E80F00A9
:10191000009606E0236921466A469847082805464E
:1019200008D120461099FFF7CBFE0028F2D00920FD
:1019300079B0F0BD6846FFF713FF062DF7D12046BA
:101940003946FFF743FF00BF30B4DD6BC1608261F1
:1019500019461D64002230BC58E700BF70B5C66848
:1019600043690B6404460D4626B10122FFF74EFF82
:1019700000F006FE0369214602202A469847072800
:1019800007D0082803D120462946FFF71FFF00F0A3
:10199000F7FD3046296CFFF717FF281D00F05CFBB0
:1019A000C2681AB1CA6B0A6400222FE79CE700BF25
:1019B000704700BF836813B1014601201847704784
:1019C00000B5042907D8DFE801F00309060909007A
:1019D0000BB90F2A05D902205DF804FB01205DF840
:1019E00004FB00EB820218465368019A13605DF80D
:1019F00004FB00BF00B585B00A4603AB002100938D
:101A00000B46FFF7DDFF039805B05DF804FB00BF50
:101A100000B5042907D8DFE801F003090609090029
:101A20000BB90F2A05D902205DF804FB01205DF8EF
:101A300004FB019900EB82020968516018465DF8C9
:101A400004FB00BF10B584B004AB0C4643F8042D72
:101A50000021009322460B46FFF7DAFF04B010BDC9
:101A6000F0B5D36B1364151D07460E460FCDADF5CB
:101A70000F7D17AC0FC40FCD0FC40FCD0FC495E869
:101A80000F004FF0FF3584E80F00169510E016A800
:101A9000FFF7D8FF314616A8B847694616AA78B9A5
:101AA000049B08209847052804460AD0092807D037
:101AB00026996846FFF704FE6A460C210028E6D006
:101AC000092416A8FFF74CFE20460DF50F7DF0BD4A
:101AD0002DE9F04F0D46C96C8BB00C1D09680791BC
:101AE0009046089400F003091E46002B64D10902B9
:101AF000032307918DF825608DF824302B6DB9F103
:101B0000020F08BFAC6B13F0010343D100F00800D3
:101B1000C2B2039201932768002F3DD0022E47D016
:101B20002788B4F802A00434AB6C2AF0010B4046BD
:101B30000F219B44FFF75EFF834537D827F0010351
:101B40009B4458452CBF002001200AF0010A07F0F1
:101B5000010747EA4A0ABAF1010F43D03AD3BAF172
:101B6000020F1FD1236823F000420292B9F1000F47
:101B70007BD138B1039A002A00F08380029A002AB0
:101B800000F0A680002B7ADB029B03F1010A04EB34
:101B90008A04C0E700230193022E40DDFFF712FE06
:101BA000002842D009200BB0BDE8F08F0020CCE720
:101BB000D4F804A00834B7E7022B9FDC0B0CDFB28B
:101BC000090402228DF8253004EB870407918DF873
:101BD000242093E7B9F1000F02D0002840F0AD8037
:101BE000043498E7B9F1000F26D1B0B194E80C00A5
:101BF000D70F9A1CD6D005F158020133069200F097
:101C00009280201DFFF7D8FD3A46014606AB2846D4
:101C1000AFF30080002840F0B58008347BE74046F1
:101C200007A900F01BFB0028BCD1019B002B59D158
:101C300008200BB0BDE8F08F40460D212F6AFFF75A
:101C4000D9FE8742E9D1AB6A9C42E6D12046FFF734
:101C5000DBFC0F2102464046FFF7F4FE40462A46D1
:101C60000021FFF7EFFE07209DE740460D212F6A78
:101C7000FFF7C0FE874245D02368002B84DA043486
:101C800082E7029B23B305F15803059604F1040A89
:101C9000039FDDF808B0CDF810901E4602E0D9454C
:101CA0004F4615D050460696FFF786FD00220146A6
:101CB00006AB2846AFF3008007F101090AF1040AD8
:101CC0000028ECD0029BDDF81090059E9F42D3D1F6
:101CD00040460D21FFF78EFE069B2862AC626B62C8
:101CE000062060E70F214046FFF784FE0E210246E2
:101CF0004046FFF7A7FE40460F21294AFFF7A2FE04
:101D0000072050E7AB6A9C42B6D104220027A318F3
:101D10000299A962EF622A636B632368BB421FDBEF
:101D20000123019330E740460D21FFF763FE28624F
:101D3000069B6B62AC62062035E72046FFF764FC29
:101D400004340646AC632846AFF3008000283FF415
:101D500029AF404632460F21FFF774FE072022E7E5
:101D60000846013004EB8000FFF74EFC0F210246CD
:101D70004046FFF767FE404639462A46FFF762FEB7
:101D8000072010E707460D214046FFF733FE022FDC
:101D90002862CDD12B46069A43F82C2F6B62C9E7F7
:101DA00000000000002393E6012391E602238FE662
:101DB000F0B50546C5B004290CD8DFE801F056039C
:101DC0000B300E00012B4FEA124496B265D0052B62
:101DD00000F08480022045B0F0BD002BFAD1102A1B
:101DE000F8D82B68DC0600F1EB8022AE3046019279
:101DF00000F0A4F9A86B019A0023012404FA03F16E
:101E0000114203D0016846F8231004300133042B3B
:101E1000F4D1A863304600F087F90020DBE7032BFC
:101E2000D8D1140C97B23B19102BD3D82B681E07AE
:101E300000F1E68022AE30467F0000F053F906EB59
:101E4000C4027B1EAC6B57B1043A214651F8040B17
:101E500042F8040F013B581CF8D104EB87043046CC
:101E6000AC6300F01DF90020B5E7002BB2D1AC6BDC
:101E700097B2281D012606FA03F1394203F1010346
:101E800002D0216801600434102B00F10400F2D16B
:101E900012F4005020D1AC639DE73219102A99D872
:101EA0000F2C97D82968C8074FF0000755D422A8EF
:101EB000019300F0E1F8019B19E008463746012B39
:101EC00000F098800F2CA86302D822A800F0D8F860
:101ED00017B102A800F0DCF800207CE73719202FAA
:101EE0003FF678AF0F2C30D93746002E45D1A96B7D
:101EF0003246002EE1D0002744A84FEA420C00EB06
:101F0000C4000CF1FF328C388E465EF8046B40F84A
:101F1000046F013A561CF8D101EB8C00002FCED093
:101F2000102C224644A938BF102201EBC202A2F5B0
:101F3000C47201467800043A01EB800051F8046B4A
:101F400042F8046F8142F9D1B9E7102F42D92A68CB
:101F5000D007A7F11007114610D521F00102052B7B
:101F60002A60019328465BD021F0030140F8481B0A
:101F700000F082F8019B002F4AD02A6851075BD4F9
:101F8000012B63D00F2C04D822A8019300F07CF819
:101F9000019B002FABD002A8019300F07DF8019BBC
:101FA000A96BC4F11002002AA6DC102C224644A81A
:101FB00038BF102200EBC202A2F5C4727800BAE763
:101FC00023F010032B6005F5E870019200F0B6F8DD
:101FD000019A0AE72968C8071DD521F001022846A1
:101FE00042F0020240F8482B0193002700F04CF821
:101FF000019BC9E70430A86322A800F039F86BE719
:1020000023F008032B6005F5A87000F06BF811E7CA
:10201000012B3FF44CAF0F2C98BF0027B4D966E7D3
:1020200042F0020240F8482B00F02EF8019B002FEE
:10203000AAD02A685107A5D5284622F0040240F804
:10204000D02B019300F028F8019B99E722A8019377
:1020500000F012F8019BA3E700F1340191E8380089
:102060009C46A6464CF8045D90E8FF0FE54600BD8F
:1020700090EC210B704700BF80EC210B704700BF34
:1020800090EC200B704700BF80EC200B704700BF26
:10209000D0EC200B704700BFC0EC200B704700BF96
:1020A000F0EC0201F0EC0211F0EC0221F0EC023154
:1020B000F0EC0241F0EC0251F0EC0261F0EC027144
:1020C000F0EC0281F0EC0291F0EC02A1F0EC02B134
:1020D000F0EC02C1F0EC02D1F0EC02E1F0EC02F124
:1020E000704700BFE0EC0201E0EC0211E0EC0221DD
:1020F000E0EC0231E0EC0241E0EC0251E0EC026184
:10210000E0EC0271E0EC0281E0EC0291E0EC02A173
:10211000E0EC02B1E0EC02C1E0EC02D1E0EC02E163
:10212000E0EC02F1704700BFB0FC0181B0FC01910E
:10213000B0FC01A1B0FC01B1704700BFA0FC01815F
:10214000A0FC0191A0FC01A1A0FC01B1704700BF5F
:10215000EC4600B52DE900502DE9FF1F4FF00003BC
:102160002DE90C0001A9FFF7BFFBDDF840E012B03C
:10217000704700BFEC4600B52DE900502DE9FF1F68
:102180004FF000032DE90C0001A9FFF7E7FBDDF894
:1021900040E012B0704700BFEC4600B52DE900509A
:1021A0002DE9FF1F4FF000032DE90C0001A9FFF7F7
:1021B000F7FBDDF840E012B0704700BFEC4600B519
:1021C0002DE900502DE9FF1F4FF000032DE90C0011
:1021D00001ABFFF7B9FBDDF840E012B0704700BF7C
:1021E000EC4600B52DE900502DE9FF1F4FF000032C
:1021F0002DE90C0001AAFFF733FCDDF840E012B036
:10220000704700BF037A1BB9437A43B9B0207047C7
:102210005A1E036802721A020260180E7047426862
:10222000013B10B4437213680321141D01721A029A
:10223000446002605DF8044B180E704700B585B02D
:1022400003AB002100930C220B46FFF7B9FB039868
:1022500005B05DF804FB00BFF0E700BF2DE9F043D7
:10226000064685B00D464FF000082846FFF7CAFF26
:10227000B028044600F0B58020F07F0111F0FF0186
:1022800020D000F0F003802B7AD0902B36D0A02BFA
:1022900049D0B02B5CD0C02B00F0898000F0F8034F
:1022A000D02B0BD100F00702013242F4002230465D
:1022B00001210523FFF77CFD0028D6D0092005B0B9
:1022C000BDE8F0830DF10C090B468700CDF80090B6
:1022D00030460D22FFF774FBFFB2039BCDF8009050
:1022E000043760064FF000014CBFDF1BFF1830467B
:1022F0000B460D220397FFF78BFBB6E700F00D03AB
:102300000D2BDBD003AF002100F00F020B4600972E
:102310003046FFF755FB002100970B4630460D2253
:10232000FFF776FBA1E7C34303F007034FF47F6297
:102330001A41010702F47F624FF0000148BF42F4E6
:1023400080420B463046FFF733FD0028B6D18CE7BC
:10235000B1284CD0B2285DD0B32800F08A8000F0BC
:10236000FC03B42BAAD000F007020132012142F491
:1023700000220B463046FFF71BFD00289ED174E774
:102380002846FFF73FFF24022043B0F5004F95D0C9
:1023900004010021A2B20B463046FFF709FD0028D8
:1023A0008CD114F4004F18BF4FF001085DE7C62828
:1023B00072D0C7287AD000F0F803C02B00F08980D3
:1023C000C82800F0A580C9287FF478AF2846FFF719
:1023D00019FF00F00F02013200F0F00042EA003273
:1023E00065E7B8F1000F00F08280002067E728461B
:1023F000FFF708FF024600283FF460AF10F0F0013D
:102400007FF45CAF30460B46FFF7D2FC00287FF428
:1024100055AF2AE700210DF10C090D220B46CDF82E
:1024200000903046FFF7CCFA2846FFF7EBFE020695
:102430004FF002040CD5039B00F07F00A040034442
:1024400028460393FFF7DEFE030604F10704F2D4E7
:10245000039BCDF8009000F07F00A04003F50173CE
:1024600000211C180D220B4630460394FFF7D0FACA
:10247000FBE62846FFF7C6FE00F00F02013200F02F
:10248000F000012142EA00320B463046FFF790FC93
:1024900000287FF413AFE8E62846FFF7B3FE00F00C
:1024A0000F02013200F0F0000321EBE72846FFF7AE
:1024B000A9FE024600283FF401AF10F0F0037FF4BC
:1024C000FDAE30460421FFF773FC00287FF4F6AE22
:1024D000CBE600F00F020132032142F420220B462A
:1024E0003046FFF765FC00287FF4E8AEBDE603AC9C
:1024F00041460E22434600943046FFF761FA0094AD
:10250000304641460F224346FFF782FA4046D6E660
:102510002846FFF777FE00F0F00200F00F031032BC
:10252000013343EA0232C2E610B5C36C84B05A6884
:1025300003208DF80C00DC798DF80D401202083371
:10254000084601A901920293FFF788FE04B010BD6E
:1025500008B5FFF781FE806C08BD00BF08B5FFF726
:102560007BFEC36CD87903EB8000083008BD00BF48
:1025700008B500F005F800BF08B500F001F800BF8D
:1025800008B5062000F0B2F9012000F003FF00BFFB
:1025900008B50021044600F0E7F9044B1868C36B46
:1025A00003B19847204600F0F5FE00BFBC33000899
:1025B00070B50F4E0F4D761BB61018BF002405D016
:1025C000013455F8043B9847A642F9D10A4E0B4D09
:1025D000761B00F0E1FEB61018BF002406D00134CF
:1025E00055F8043B9847A642F9D170BD70BD00BFB5
:1025F000EC090020EC090020F4090020EC0900207F
:10260000844641EA000313F003036DD1403A41D3FD
:1026100051F8043B40F8043B51F8043B40F8043BBC
:1026200051F8043B40F8043B51F8043B40F8043BAC
:1026300051F8043B40F8043B51F8043B40F8043B9C
:1026400051F8043B40F8043B51F8043B40F8043B8C
:1026500051F8043B40F8043B51F8043B40F8043B7C
:1026600051F8043B40F8043B51F8043B40F8043B6C
:1026700051F8043B40F8043B51F8043B40F8043B5C
:1026800051F8043B40F8043B51F8043B40F8043B4C
:10269000403ABDD2303211D351F8043B40F8043BEC
:1026A00051F8043B40F8043B51F8043B40F8043B2C
:1026B00051F8043B40F8043B103AEDD20C3205D3FC
:1026C00051F8043B40F8043B043AF9D2043208D0F4
:1026D000D2071CBF11F8013B00F8013B01D30B8866
:1026E00003806046704700BF082A13D38B078DD044
:1026F00010F003038AD0C3F10403D21ADB071CBF16
:1027000011F8013B00F8013B80D331F8023B20F87F
:10271000023B7BE7043AD9D3013A11F8013B00F8B8
:10272000013BF9D20B7803704B7843708B78837040
:102730006046704770B4840746D0541E002A41D0CA
:10274000CDB2034602E0621EE4B3144603F8015B17
:102750009A07F8D1032C2ED9CDB245EA05250F2CC6
:1027600045EA054519D903F110022646103E0F2E01
:1027700042F8105C42F80C5C42F8085C42F8045CD9
:1027800002F11002F2D8A4F1100222F00F0204F0BC
:102790000F041032032C13440DD91E462246043A6E
:1027A000032A46F8045BFAD8221F22F003020432FF
:1027B000134404F003042CB1C9B21C4403F8011BF8
:1027C000A342FBD170BC704714460346C2E700BF6A
:1027D00038B5D0F8DC4205460CB1002038BD802168
:1027E00000F048F9C5F8DC0250B12346224601E06A
:1027F000D5F8DC02C2500433802BF9D1002038BD5B
:102800004FF0FF3038BD00BF1F29F8B50AD8D0F807
:10281000DC42074616460D464CB154F8250044F8F4
:102820002560F8BD162202604FF0FF30F8BDFFF7BB
:10283000CFFF10B9D7F8DC42EFE74FF0FF30F8BD1B
:102840001F2938B522D8D0F8DC2205460C469AB1AB
:1028500052F8213083B1012B0CD0591C06D0002531
:10286000204642F824509847284638BD1623036076
:10287000012038BD002038BD284600F069F8224606
:1028800001462846BDE8384000F04EB816230360E4
:102890004FF0FF3038BD00BF1F2920D838B5D0F821
:1028A000DC3205460C46A3B153F8242003EB840325
:1028B0006AB1511C09D0012A05D0002520461D60AF
:1028C0009047284638BD032038BD022038BD01207E
:1028D00038BDFFF77DFF28B9D5F8DC32E4E74FF0CB
:1028E000FF3070474FF0FF3038BD00BF024B01464C
:1028F0001868FFF7A5BF00BFD8050020024B0A46A5
:1029000001461868FFF780BFD8050020014B186802
:10291000FFF75EBFD8050020024B01461868FFF79D
:10292000BBBF00BFD805002038B5084C00230546C2
:1029300008461146236000F017FD431C00D038BD47
:102940002368002BFBD02B6038BD00BF500A00204D
:1029500000F002BD024B13B1024800F06FB870479F
:1029600000000000492A00082DE9F04F314B83B0E8
:102970001B68009303F5A47381460E460193009BE8
:10298000D3F8487127B3DDF804A07C68651E0ED427
:10299000013407EB84044FF00008E6B1D4F80031AD
:1029A000B34218D0013D6B1CA4F10404F5D1224BB5
:1029B00073B17B68002B36D13B68002B34D038468E
:1029C000CAF80030AFF30080DAF80070002FDCD1D5
:1029D00003B0BDE8F08F7B682268013BAB420CBFBF
:1029E0007D60C4F80080002ADCD0D7F88831D7F8A1
:1029F00004B00121A940194208D190477B685B458A
:102A0000BDD1DAF80030BB42CCD0B8E7D7F88C3172
:102A1000194204D14846D4F880109047EEE7D4F824
:102A200080009047EAE73B68BA461F46002FACD1CA
:102A3000CEE700BFBC3300080000000001460020C4
:102A40000246034600F010BB38B5084B084DED1A9E
:102A5000AC1018BFED1805D0013C55F8043D98475F
:102A6000002CF9D1BDE8384000F09CBCF4090020EE
:102A7000F80900202DE9F04F01F10B05162D83B068
:102A8000064627D935F0070500F1B680A94200F2C5
:102A9000B38000F081FAB5F5FC7F22D2C24FE8087E
:102AA00007EBC003DC689C4200F0C8816368E16802
:102AB000A56823F00303234430465A68E96042F0D6
:102AC00001028D605A6000F069FA0834204603B0B4
:102AD000BDE8F08F102900F28F8000F05DFA10251C
:102AE000DCE7680A00F08F80042800F25481A8090E
:102AF00038304100AC4F07EB8101CC68A14206D1D0
:102B00000CE0002A80F28280E468A14206D063686B
:102B100023F003035A1B0F2AF3DD01380130A249C9
:102B20003C6901F1080E744500F07D81636823F073
:102B300003035A1B0F2A00F36381002AC1F814E033
:102B4000C1F810E073DAB3F5007F80F03981DB085B
:102B500001EBC3084FEAA30C4A68D8F80890C4F800
:102B60000890012303FA0CF31343C4F80C804B6064
:102B7000C8F80840C9F80C408210012494409C42D7
:102B800062D8234206D120F003006400234200F102
:102B90000400FAD007EBC008C4468146DCF80C30CC
:102BA0009C4507D141E1002980F25181DB689C45B9
:102BB00000F03B815A6822F00302511B0F29F2DD1D
:102BC0001C46D3F80CC054F8088F5A1945F0010977
:102BD00041F00105C3F804903046C8F80CC0CCF8A9
:102BE00008807A613A61C2F80CE0C2F808E05560EA
:102BF000515000F0D3F969E700240C2320463360DC
:102C000003B0BDE8F08F7E213F2073E72344E168E5
:102C10005A68A56842F00102E96030468D605A604A
:102C200000F0BCF90834204603B0BDE8F08F23441F
:102C300030465A6842F001025A6000F0AFF9083499
:102C4000204603B0BDE8F08FBC68636823F003083A
:102C5000454504D8C5EB08030F2B00F38C80534B7C
:102C6000DFF858A11A68DAF8003001332A4404EB7F
:102C7000080B00F0508102F580520F3222F47F627F
:102C800022F00F0211463046019200F0DBF9B0F15C
:102C9000FF3F8146019A00F04781834500F2EE80B4
:102CA000434B1968CB451144196000F04281DAF8B2
:102CB0000000DFF808E101301BBFCBEB090B5944E2
:102CC000CEF80090196019F0070100F00781C1F1FA
:102CD0000800C1F58051814408314A44C2F30B0217
:102CE000C2EB010A51463046019300F0ABF9431C98
:102CF000019B00F02C81C9EB0002524442F001021A
:102D00001968C7F808905144BC42C9F804201960FA
:102D1000DFF89CA016D0B8F10F0F40F2EE80626889
:102D2000A8F10C0323F00703E01802F001024FF0B2
:102D3000050E1A430F2B6260C0F804E0C0F808E0EB
:102D400000F209811B4BBC681A68914288BF196068
:102D5000194B1A689142626888BF196022F0030219
:102D60009542A2EB050301D80F2B04DC304600F09E
:102D700015F90024AAE6621943F0010345F00105A4
:102D800065603046BA60536000F008F908342046A8
:102D900003B0BDE8F08F142868D9542800F297805A
:102DA000280B6E304100A5E6DC050020200A00203B
:102DB000240A00201C0A0020180A0020E80900202C
:102DC0005A0A042A55D9142A00F2A7805B324FEA26
:102DD000420C07EB8C0CDFF8BC81DCF80810614575
:102DE0007FD04A6822F00302934202D289688C4560
:102DF000F7D1CA687B68E260A1609460CC60BBE6F2
:102E0000631942F0010745F00105656030464B61EA
:102E10000B61C3F80CE0C3F808E05F609A50083417
:102E200000F0BCF852E64B68A6E609F1010919F07A
:102E3000030F0CF1080C7FF4B1AE2CE004F1080391
:102E40006469A34208BF02303FF469AE2EE61A441B
:102E50001C465168DB6854F8085F41F0010151607D
:102E60003046EB609D6000F099F82FE65B30410042
:102E700040E69A0938324FEA420CAAE7BC42454B79
:102E80003FF40EAF9C68626822F0030268E7D8F84E
:102E9000008098457CD110F0030FA8F1080300F1E1
:102EA000FF30F4D17B6823EA04037B6064009C421A
:102EB0003FF6CAAE002C3FF4C7AE234248467FF42B
:102EC00069AE6400234200F10400FAD062E6B0F576
:102ED000AA7F18D8E80B773041000BE64FF48051F9
:102EE000FBE6D8F8043092104FF0010C0CFA02F215
:102EF0001343C8F804300A467DE70123C9F80430BB
:102F00004C4600222CE740F2545398421CD8A80C9F
:102F10007C304100EEE51032B4E6542A23D81A0B77
:102F20006E324FEA420C54E7BC68626822F003023A
:102F300016E7CBF30B0000287FF4B9AE4244BB6820
:102F400042F001025A60FDE6FC217E20D2E501221A
:102F50004FF0000AD4E604F10801304600F024F9ED
:102F6000DAF80010EEE6B2F5AA7F04D8DA0B773271
:102F70004FEA420C2DE740F254518A4204D89A0C91
:102F80007C324FEA420C24E74FF0FC0C7E2220E713
:102F90007B688BE7DC050020704700BF704700BFEF
:102FA00038B50C460968054609B1FFF7F9FF284610
:102FB0002146BDE8384000F0F7B800BF204B1B6841
:102FC00098423CD0C36C70B505468BB10026995928
:102FD00039B10C68284600F0E7F82146002CF8D1FA
:102FE000EB6C0436802EF2D11946284600F0DCF84E
:102FF000296C11B1284600F0D7F8D5F8481151B125
:1030000005F5A676B14206D00C68284600F0CCF84B
:10301000A6422146F8D1696D11B1284600F0C4F8E6
:10302000AB6B03B970BDEB6B28469847D5F8E0123F
:103030000029F7D02846BDE87040FFF7B1BF7047C0
:10304000D805002038B5074C002305460846236004
:1030500000F092F9431C00D038BD2368002BFBD050
:103060002B6038BD500A00202DE9F047254C25681B
:10307000D5F848410646884692469946CCB36068E2
:103080001F2818DC431C7EB104EB80050121C5F824
:1030900088A0D4F8887101FA00F21743022EC4F810
:1030A0008871C5F808911ED00230636044F8208012
:1030B0000020BDE8F087144B03B34FF4C870AFF3A2
:1030C00000800446D0B1D5F84831002780E8880058
:1030D000C5F8484138460123C4F88871C4F88C719A
:1030E000002EE1D0D0E7D4F88C110A43C4F88C212B
:1030F000DAE705F5A674C5F84841C0E74FF0FF30A0
:10310000BDE8F087BC33000800000000F8B5234F8D
:103110000C460646FFF740FFBB685D6825F00305D7
:10312000291B01F6EF7121F47F6121F00F01A1F558
:103130008054B4F5805F07DB30460021FFF782FF43
:10314000BB682B44984204D03046FFF727FF00208D
:10315000F8BD30466142FFF775FF01300DD0104BCE
:10316000BA6819682D1B45F001053046091B5560EA
:103170001960FFF713FF0120F8BD30460021FFF76B
:1031800061FFBA68831A0F2BDEDD064C0449246800
:1031900043F00103001B53600860D5E7DC05002005
:1031A000240A0020E809002000294ED02DE9F04132
:1031B0000C468046FFF7F0FE54F8047C624927F085
:1031C0000102A4F10805AB188E6858689E4220F0F1
:1031D00003005AD0FE0758600BD454F8087CED1B4E
:1031E00001F1080EAC6874453A4467D0EF68E760B7
:1031F000BC601C186468E4070CD4544F9C68BC4243
:1032000002447CD0D868E06042F0010384606B60C7
:10321000AA5003E042F001036B60AA50B2F5007FB0
:1032200014D2D20801EBC20348689F68AF609210C5
:10323000012404FA02F21043EB6048609D60FD60D7
:103240004046BDE8F041FFF7A9BE7047530A042B82
:1032500047D8930903F13804600001EB80003A4934
:103260008368834243D0596821F00301914202D917
:103270009B689842F7D1DA68EA60AB604046956097
:10328000DD60BDE8F041FFF789BEFF07024407D4C7
:1032900054F8083CED1A1A44A868EB68C3609860BB
:1032A0002B4B1B6842F001009A4268608D60C7D3C7
:1032B000284B40461968FFF729FFC1E719184968EC
:1032C000C90709D4D9689B68024442F00100D9605B
:1032D0008B606860AA50B3E742F001036B60AA50AC
:1032E000AEE7142B14D803F15B046000B5E74A681D
:1032F000A4100120A04002434A601A46BCE742F0F5
:1033000001034D610D61EC60AC606B60AA5097E702
:10331000542B04D8130B03F16E0460009DE7B3F542
:10332000AA7F04D8D30B03F17704600095E740F23D
:103330005450834204D8930C03F17C0460008CE762
:10334000FC207E2489E700BFDC050020E405002086
:10335000E4090020200A0020024B58221A604FF096
:10336000FF307047500A0020024B58221A604FF07D
:10337000FF307047500A0020044A05491368002BAB
:1033800008BF0B4618441060184670474C0A0020CE
:10339000540A0020FEE700BFF8B500BFF8BC08BC27
:1033A0009E467047F8B500BFF8BC08BC9E46704703
:1033B0000024F4000048E80143000000B0010020B0
:0433C0000000000009
:1033C40007970181B0B008840000000008B10181B2
:1033D400B0B000840000000008B10181B0B00084E6
:0433E40000000000E5
:1033E800FCCDFF7F01000000B0E1FF7FD0FFFF7F31
:1033F80010E2FF7F01000000C0E2FF7FB0A9028059
:1034080058E3FF7FB0B0A880A8E3FF7F0100000069
:10341800B4E3FF7FB0B0AA80ECE3FF7FAE71B28067
:10342800BCE4FF7F01000000B8E4FF7FAB3F3880B9
:1034380010E5FF7F010000001CE5FF7FB0B0AA8007
:1034480058E5FF7F0100000010E6FF7FAB0EB28059
:1034580078E6FF7FB0AF0A8044E9FF7F01000000F3
:1034680048E9FF7FAB3F0480E8EBFF7F01000000E5
:10347800C4EDFF7F00840480D8EDFF7F01000000C9
:10348800D4EDFF7FB0AD048098F0FF7FB0A8038033
:10349800B8F0FF7F34FFFF7FBCF0FF7F38FFFF7F6E
:0834A800C8F0FF7F01000000E5
:1034B00000000000007A030A000000000000000085
:1034C0000102030406070809000000009C04002014
:1034D000040500206C050020000000000000000032
:1034E00000000000000000000000000000000000DC
:1034F000000000000000000000000000B8330008D9
:1035000000000000000000000000000000000000BB
:1035100000000000000000000000000000000000AB
:10352000000000000000000000000000000000009B
:10353000000000000000000000000000000000008B
:10354000000000000000000000000000000000007B
:10355000000000000000000000000000000000006B
:10356000000000000000000000000000000000005B
:1035700001000000000000000E33CDAB34126DE6F8
:10358000ECDE05000B000000000000000000000061
:10359000000000000000000000000000000000002B
:1035A000000000000000000000000000000000001B
:1035B000000000000000000000000000000000000B
:1035C00000000000000000000000000000000000FB
:1038F000B00100200000000000000000DC050020F6
:10390000DC050020E4050020E4050020EC05002093
:10391000EC050020F4050020F4050020FC05002043
:10392000FC05002004060020040600200C060020F0
:103930000C06002014060020140600201C0600209F
:103940001C06002024060020240600202C0600204F
:103950002C06002034060020340600203C060020FF
:103960003C06002044060020440600204C060020AF
:103970004C06002054060020540600205C0600205F
:103980005C06002064060020640600206C0600200F
:103990006C06002074060020740600207C060020BF
:1039A0007C06002084060020840600208C0600206F
:1039B0008C06002094060020940600209C0600201F
:1039C0009C060020A4060020A4060020AC060020CF
:1039D000AC060020B4060020B4060020BC0600207F
:1039E000BC060020C4060020C4060020CC0600202F
:1039F000CC060020D4060020D4060020DC060020DF
:103A0000DC060020E4060020E4060020EC0600208E
:103A1000EC060020F4060020F4060020FC0600203E
:103A2000FC06002004070020040700200C070020EB
:103A30000C07002014070020140700201C0700209A
:103A40001C07002024070020240700202C0700204A
:103A50002C07002034070020340700203C070020FA
:103A60003C07002044070020440700204C070020AA
:103A70004C07002054070020540700205C0700205A
:103A80005C07002064070020640700206C0700200A
:103A90006C07002074070020740700207C070020BA
:103AA0007C07002084070020840700208C0700206A
:103AB0008C07002094070020940700209C0700201A
:103AC0009C070020A4070020A4070020AC070020CA
:103AD000AC070020B4070020B4070020BC0700207A
:103AE000BC070020C4070020C4070020CC0700202A
:103AF000CC070020D4070020D4070020DC070020DA
:103B0000DC070020E4070020E4070020EC07002089
:103B1000EC070020F4070020F4070020FC07002039
:103B2000FC07002004080020040800200C080020E6
:103B30000C08002014080020140800201C08002095
:103B40001C08002024080020240800202C08002045
:103B50002C08002034080020340800203C080020F5
:103B60003C08002044080020440800204C080020A5
:103B70004C08002054080020540800205C08002055
:103B80005C08002064080020640800206C08002005
:103B90006C08002074080020740800207C080020B5
:103BA0007C08002084080020840800208C08002065
:103BB0008C08002094080020940800209C08002015
:103BC0009C080020A4080020A4080020AC080020C5
:103BD000AC080020B4080020B4080020BC08002075
:103BE000BC080020C4080020C4080020CC08002025
:103BF000CC080020D4080020D4080020DC080020D5
:103C0000DC080020E4080020E4080020EC08002084
:103C1000EC080020F4080020F4080020FC08002034
:103C2000FC08002004090020040900200C090020E1
:103C30000C09002014090020140900201C09002090
:103C40001C09002024090020240900202C09002040
:103C50002C09002034090020340900203C090020F0
:103C60003C09002044090020440900204C090020A0
:103C70004C09002054090020540900205C09002050
:103C80005C09002064090020640900206C09002000
:103C90006C09002074090020740900207C090020B0
:103CA0007C09002084090020840900208C09002060
:103CB0008C09002094090020940900209C09002010
:103CC0009C090020A4090020A4090020AC090020C0
:103CD000AC090020B4090020B4090020BC09002070
:103CE000BC090020C4090020C4090020CC09002020
:103CF000CC090020D4090020D409002000000200D3
:103D0000FFFFFFFF55290008AD01000889010008E9
:043D100000000000AF
:040000050800026D80
:00000001FF
