:020000040800F2
:10000000000002206D020008BD020008BD020008C9
:10001000BD020008BD020008BD020008000000008B
:10002000000000000000000000000000BD02000809
:10003000BD02000800000000BD020008BD0200086B
:10004000BD020008BD020008BD020008BD02000894
:10005000BD020008BD020008BD020008BD02000884
:10006000BD020008BD020008BD020008BD02000874
:10007000BD020008BD020008BD020008BD02000864
:10008000BD020008BD020008BD020008BD02000854
:10009000BD020008BD020008BD020008BD02000844
:1000A000BD020008BD020008BD020008BD02000834
:1000B000BD020008BD020008BD020008BD02000824
:1000C000BD020008BD020008BD020008BD02000814
:1000D000BD020008BD020008BD020008BD02000804
:1000E000BD020008BD020008BD020008BD020008F4
:1000F000BD020008BD020008BD020008BD020008E4
:10010000BD020008BD020008BD020008BD020008D3
:10011000BD020008BD020008BD020008BD020008C3
:10012000BD020008BD020008BD020008BD020008B3
:10013000BD020008BD020008BD020008BD020008A3
:10014000BD020008BD020008BD020008BD02000893
:10015000BD020008BD020008BD020008BD02000883
:10016000BD020008BD020008BD020008BD02000873
:10017000BD020008BD020008BD020008BD02000863
:10018000BD020008BD02000810B5054C237833B944
:10019000044B13B10448AFF300800123237010BD5A
:1001A000780A002000000000988D0008084B10B568
:1001B0001BB108480849AFF300800848036803B939
:1001C00010BD074B002BFBD0BDE81040184700BF07
:1001D00000000000988D00087C0A0020740A0020AE
:1001E00000000000154B002B08BF134B9D46A3F5E4
:1001F000803A00218B460F461348144A121A02F027
:1002000097FD0F4B002B00D098470E4B002B00D0D2
:1002100098470020002104000D000D48002802D05E
:100220000C4804F0B7F902F0C1FC2000290001F0ED
:10023000A5FB02F0ABFC00BF00000800000002209C
:100240000000000000000000780A0020E00A002002
:1002500095450008755500083C8F0008980100205E
:10026000780A0020780A0020E00A0020002103E03C
:100270000C4B5B58435004310B480C4B42189A42CC
:10028000F6D30B4AFFE7002342F8043B094B9A429E
:10029000F9D30948016841F47001016001F06EFB77
:1002A000704700003C8F000898010020780A002069
:1002B000780A0020E00A002088ED00E080B500AF59
:1002C000154A154BD3F8883043F47003C2F88830D0
:1002D000124A124B1B6843F0010313600F4B0022BC
:1002E0009A600E4A0D4B1B6823F0847323F480330D
:1002F00013600A4B0A4A5A60084A084B1B6823F4E9
:1003000080231360054B0022DA6000F087F8024B6F
:100310004FF000629A6080BD00ED00E000380240BE
:100320001030002480B487B000AF00233B6100236D
:100330007B610223FB600023BB6002237B60324BA6
:100340009B6803F00C033B613B69042B07D0082B2F
:1003500009D0002B3FD12D4B2D4A1A603FE02B4B8B
:100360002C4A1A603BE0284B5B6803F480039B0D2A
:10037000BB60254B5B6803F03F037B60BB68002BD1
:100380000DD0244A7B68B2FBF3F21F4B596847F645
:10039000C0730B409B0903FB02F37B610CE01C4A1A
:1003A0007B68B2FBF3F2184B596847F6C0730B40F9
:1003B0009B0903FB02F37B61134B5B6803F440333F
:1003C0001B0C01335B00FB607A69FB68B2FBF3F343
:1003D0000E4A136003E00D4B0D4A1A6000BF0A4B32
:1003E0009B6803F0F0031B090B4AD35CDBB23B6153
:1003F000064B1A683B6922FA03F3044A13601C3760
:10040000BD465DF8047B7047003802409C01002027
:100410000024F40000127A00A001002080B483B010
:1004200000AF00237B6000233B603A4A394B1B68D6
:1004300043F480331360374B1B6803F400333B6095
:100440007B6801337B603B68002B03D17B68B3F58D
:10045000A06FF0D12F4B1B6803F40033002B02D0A8
:1004600001233B6001E000233B603B68012B0CD182
:10047000284A284B1B6C43F080531364264A264BB2
:100480001B6843F4804313603EE0224A214B1B6803
:1004900023F0847323F4803313601E4A1D4B1B68C2
:1004A00043F0010313601B4A1A4B1B6C43F080534B
:1004B0001364194A184B1B6843F480431360154AB0
:1004C000144B9B689360134A124B9B6843F40043A0
:1004D0009360104A0F4B9B6843F4A05393600D4AFE
:1004E0000E4B9B0143F0E06343F010035360094A55
:1004F000084B1B6843F08073136000BF054B1B68FB
:1005000003F00073002BF9D00C37BD465DF8047B77
:10051000704700BF00380240007000400048E8010A
:1005200080B485B000AF786039607B683A681A6043
:100530003B68114A934209D03B68104A934202D16A
:100540004FF4007304E04FF4806301E04FF48073D4
:10055000FB600B490A4B5A6CFB6813434B643B68C6
:100560009B6843F001023B689A607B681846143729
:10057000BD465DF8047B704700200140002101402A
:100580000038024080B485B000AF786039607B6885
:100590001B683A685A637B681B687A6812689268BD
:1005A00042F080429A6000BF7B681B681B6803F0C2
:1005B0000203002B0CBF01230023DBB2002BF3D17D
:1005C0007B681B68DB6CFB6018461437BD465DF822
:1005D000047B704780B487B000AFF860B9607A6080
:1005E000FB70FB685B6801229A40FB68DA60FB687D
:1005F000BA681A60FB687A685A60FB68FA781A72FF
:10060000BB68934A934231D0BB68924A93422BD045
:10061000BB68914A934225D0BB68904A93421FD051
:10062000BB688F4A934219D0BB688E4A934213D05D
:10063000BB688D4A93420DD0BB688C4A934207D069
:10064000BB688B4A934201D1082310E009230EE0D6
:1006500007230CE006230AE0052308E0042306E054
:10066000032304E0022302E0012300E000237B6176
:100670008049804B1A6B01207B6900FA03F3134316
:100680000B63FB78002B51D1FB681B68FA6812687A
:100690001168FA6852685200032000FA02F2D2434D
:1006A0000A401A60FB681B68FA6812681168FA68E9
:1006B00052685200012000FA02F20A431A60FB68F5
:1006C0001B68FA6812685168FA685268012000FADB
:1006D00002F2D2430A405A60FB681B68FA6812684B
:1006E0009168FA6852685200032000FA02F2D2437D
:1006F0000A409A60FB681B68FA6812689168FA6899
:1007000052685200022000FA02F20A439A60FB6823
:100710001B68FA681268D168FA68526852000320B0
:1007200000FA02F2D2430A40DA60F7E0FB78012BCC
:1007300045D1FB681B68FA6812681168FA6852684C
:100740005200032000FA02F2D2430A401A60FB680A
:100750001B68FA6812685168FA68526852000120F2
:1007600000FA02F2D2430A405A60FB681B68FA683A
:1007700012689168FA6852685200032000FA02F287
:10078000D2430A409A60FB681B68FA681268916855
:10079000FA6852685200022000FA02F20A439A6094
:1007A000FB681B68FA681268D168FA6852685200E0
:1007B000032000FA02F2D2430A40DA60AEE0FB788E
:1007C000022B59D1FB681B68FA6812681168FA6835
:1007D00052685200032000FA02F20A431A60FB68D2
:1007E0001B68FA6812685168FA6852685200012062
:1007F00000FA02F2D2430A405A60FB681B68FA68AA
:1008000012689168FA6852685200032000FA02F2F6
:10081000D2430A409A60FB681B68FA6812689168C4
:10082000FA6852685200022000FA02F20A439A6003
:10083000FB681B68FA681268D168FA68526852004F
:10084000032000FA02F2D2430A40DA6066E000BFF9
:10085000000002400004024000080240000C024078
:10086000001002400014024000180240001C024028
:100870000020024000380240FB681B68FA681268DA
:100880001168FA6852685200032000FA02F2D2435B
:100890000A401A60FB681B68FA6812681168FA68F7
:1008A00052685200022000FA02F20A431A60FB6802
:1008B0001B68FA6812685168FA6852685200012091
:1008C00000FA02F2D2430A405A60FB681B68FA68D9
:1008D00012689168FA6852685200032000FA02F226
:1008E000D2430A409A60FB681B68FA6812689168F4
:1008F000FA6852685200022000FA02F20A439A6033
:10090000FB681B68FA681268D168FA68526852007E
:10091000032000FA02F2D2430A40DA60FB6818466C
:100920001C37BD465DF8047B704700BF80B483B0C0
:1009300000AF78600B46FB70FB78002B1BD17B6807
:100940001B687A68126811687A685268520003203E
:1009500000FA02F2D2430A401A607B681B687A6888
:10096000126811687A6852685200012000FA02F297
:100970000A431A6043E0FB78012B0ED17B681B68A9
:100980007A68126811687A6852685200032000FA87
:1009900002F2D2430A401A6031E0FB78022B0DD1FB
:1009A0007B681B687A68126811687A68526852001E
:1009B000032000FA02F20A431A6020E0FB78032BBE
:1009C0001BD17B681B687A68126811687A68526864
:1009D0005200032000FA02F2D2430A401A607B68F8
:1009E0001B687A68126811687A685268520002209F
:1009F00000FA02F20A431A6001E0002300E001233A
:100A000018460C37BD465DF8047B704780B483B050
:100A100000AF786039603B68002B06D07B681B68AC
:100A20007A68D26892B21A8305E07B681B687A689C
:100A3000D26892B25A83012318460C37BD465DF83E
:100A4000047B704780B483B000AF78607B681B681C
:100A50001A697B685B6822FA03F303F00103184606
:100A60000C37BD465DF8047B704700BF80B487B08B
:100A700000AFF860B9607A60FB68BA681A60FB681A
:100A80007A685A60BB68B3F1804F2BD0BB684A4A82
:100A9000934225D0BB68494A93421FD0BB68484A5D
:100AA000934219D0BB68474A934213D0BB68464A69
:100AB00093420DD0BB68454A934207D0BB68444A75
:100AC000934201D107230EE008230CE006230AE03D
:100AD000052308E0042306E0032304E0022302E0E8
:100AE000012300E000233B613A493A4B1A6C012094
:100AF0003B6900FA03F313430B64BB689B8A9BB208
:100B000043F001039AB2BB689A82BB681B8D9BB20B
:100B100001331A46304BB3FBF2F27B68B2FBF3F2BF
:100B2000BB68DA624FF6FF737B61BB68B3F1804F3D
:100B300003D0BB68224A934202D14FF0FF337B615E
:100B4000FB687A699A6013E0BB681B8D9BB2013326
:100B50009AB2BB681A85BB681B8D9BB201331A46DB
:100B60001D4BB3FBF2F27B68B2FBF3F2BB68DA62B7
:100B7000BB68DA6A7B699A428CBF01230023DBB22F
:100B8000002BE1D1FB681B68FA681268128892B2E8
:100B900042F0800292B21A80BB681B889BB243F07D
:100BA00001039AB2BB681A80FB6818461C37BD4621
:100BB0005DF8047B704700BF00040040000800405F
:100BC000000C0040001000400014004000180040DD
:100BD000001C0040003802400024F40080B483B0C0
:100BE00000AF786039607B681B6800221A857B68DB
:100BF0001B687A681268128D92B201321146174A48
:100C0000B2FBF1F13A68B1FBF2F2DA6215E07B680F
:100C10001B681A8D92B2013292B21A857B681B68EA
:100C20007A681268128D92B2013211460B4AB2FBF9
:100C3000F1F13A68B1FBF2F2DA627B681B68DB6AB9
:100C40007A68926893422CBF01230023DBB2002B09
:100C5000DDD10C37BD465DF8047B70470024F400FD
:100C600080B483B000AF786039607B681B68002275
:100C70001A857B681B683A68DA627B681B681B8D83
:100C80009BB201331A46074BB3FBF2F23B68B2FB4F
:100C9000F3F31A467B685A600C37BD465DF8047B57
:100CA000704700BF0024F400B0B487B000AFF86014
:100CB000B9607A60FB70FB681B68FA681268128C76
:100CC00091B2BA68013A9200012000FA02F292B29F
:100CD000D24392B20A4092B21A84FB681B687F4AE0
:100CE00093421DD0FB681B68B3F1804F16D0FB68A0
:100CF0001B687B4A93420FD0FB681B68794A93427A
:100D000008D0FB681B68784A934201D1022308E0AF
:100D1000032306E0022304E0022302E0012300E0B3
:100D20000123FB757B681B687A685268072ACCBF71
:100D300001220022D2B214467A68126879684968A2
:100D40000729CCBF01210021C9B2083152F8212066
:100D50007968486879684968072901DD082100E059
:100D60000021411A89000F2000FA01F1C943114006
:100D700004F1080243F822107B681B687A68526805
:100D8000072ACCBF01220022D2B215467A68126827
:100D9000796849680729CCBF01210021C9B208310F
:100DA00052F82120F87D79684C68796849680729EC
:100DB00001DD082100E00021611A890000FA01F13B
:100DC000114305F1080243F82210BB68013B032BD5
:100DD00036D801A252F823F0E90D0008FF0D0008F3
:100DE000150E00082B0E0008FB681B68FA681268D5
:100DF000128B92B242F0710292B21A8320E0FB6829
:100E00001B68FA681268128B92B242F4E24292B204
:100E10001A8315E0FB681B68FA681268928B92B21D
:100E200042F0710292B29A830AE0FB681B68FA688A
:100E30001268928B92B242F4E24292B29A8300BF5D
:100E4000FB78002B0BD0FB78012B06D0FB78022B14
:100E500001D1052304E0002302E0012300E0002388
:100E6000BB75BB7D5B00DBB243F00103DBB27B757E
:100E7000FB681B68FA681268128C92B290B2797D96
:100E8000BA68013A920001FA02F292B201460A43AC
:100E900092B292B21A84BB68013B032B1AD801A20A
:100EA00052F823F0B50E0008BD0E0008C50E00086C
:100EB000CD0E0008FB681B6800225A63FB681B68A4
:100EC00000229A63FB681B680022DA63FB681B68D8
:100ED00000221A641C37BD46B0BC704700000140B8
:100EE0000004004000080040000C004080B483B0C3
:100EF00000AF786039603B68013B032B1AD801A230
:100F000052F823F0150F00081D0F0008250F0008E8
:100F10002D0F00087B681B685B6B0BE07B681B6810
:100F20009B6B07E07B681B68DB6B03E07B681B68DF
:100F30001B6CFFE718460C37BD465DF8047B704715
:100F4000B0B487B000AFF860B9607A60BB68013BAD
:100F50009B007B61FB681B68FA681268128C91B277
:100F600001207A6900FA02F292B20A4392B21A841C
:100F7000BB68013B032B37D801A252F823F000BF16
:100F8000910F0008A70F0008BD0F0008D30F00083D
:100F9000FB681B68FA681268128B92B242F0680212
:100FA00092B21A8320E0FB681B68FA681268128B01
:100FB00092B242F4D04292B21A8315E0FB681B68E9
:100FC000FA681268928B92B242F0680292B29A83E7
:100FD0000AE0FB681B68FA681268928B92B242F4CE
:100FE000D04292B29A8300BFFB681B68414A934289
:100FF0001DD0FB681B68B3F1804F16D0FB681B68DF
:101000003D4A93420FD0FB681B683C4A934208D08C
:10101000FB681B683A4A934201D1022308E003238C
:1010200006E0022304E0022302E0012300E00123A2
:10103000FB747B681B687A685268072ACCBF012260
:101040000022D2B214467A68126879684968072982
:10105000CCBF01210021C9B2083152F821207968A2
:10106000486879684968072901DD082100E0002106
:10107000411A89000F2000FA01F1C943114004F11F
:10108000080243F822107B681B687A685268072AB6
:10109000CCBF01220022D2B215467A681268796864
:1010A00049680729CCBF01210021C9B2083152F893
:1010B0002120F87C79684C6879684968072901DD46
:1010C000082100E00021611A890000FA01F11143B2
:1010D00005F1080243F82210FB681B68FA681268E1
:1010E000928A92B242F0010292B29A821C37BD46B5
:1010F000B0BC704700000140000400400008004000
:10110000000C004080B487B000AFF860B9607A602E
:101110007B68642B00DD2DE0FB681B68DB6A7A6866
:1011200002FB03F3164AA2FB03235B097B61BB6846
:10113000013B032B1ED801A252F823F04D110008E9
:1011400057110008611100086B110008FB681B684B
:101150007A695A630EE0FB681B687A699A6309E052
:10116000FB681B687A69DA6304E0FB681B687A69CC
:101170001A6400BF1C37BD465DF8047B704700BF92
:101180001F85EB51B0B586B000AFF860B9607A60EA
:101190003B60FB681B689C4A93421DD0FB681B6840
:1011A000B3F1804F16D0FB681B68984A93420FD06A
:1011B000FB681B68964A934208D0FB681B68954AF7
:1011C000934201D1022308E0032306E0022304E056
:1011D000022302E0012300E00123FB753B681B684A
:1011E0003A685268072ACCBF01220022D2B21446C4
:1011F0003A681268396849680729CCBF0121002183
:10120000C9B2083152F821203968486839684968FC
:10121000072901DD082100E00021411A89000F2083
:1012200000FA01F1C943114004F1080243F8221009
:101230003B681B683A685268072ACCBF012200222B
:10124000D2B215463A681268396849680729CCBF96
:1012500001210021C9B2083152F82120F87D3968F6
:101260004C6839684968072901DD082100E0002140
:10127000611A890000FA01F1114305F1080243F8EF
:101280002210BB6A1B68BA6A5268072ACCBF0122C7
:101290000022D2B21446BA6A1268B96A49680729AC
:1012A000CCBF01210021C9B2083152F82120B96A0E
:1012B0004868B96A4968072901DD082100E0002172
:1012C000411A89000F2000FA01F1C943114004F1CD
:1012D000080243F82210BB6A1B68BA6A5268072AE0
:1012E000CCBF01220022D2B21546BA6A1268B96A8E
:1012F00049680729CCBF01210021C9B2083152F841
:101300002120F87DB96A4C68B96A4968072901DD6E
:10131000082100E00021611A890000FA01F111435F
:1013200005F1080243F82210FB681B68FA6812688E
:10133000128892B222F0010292B21A80F8684FF03D
:10134000FF31FFF78DFCBB68013B032B36D801A2B0
:1013500052F823F0651300087B130008911300086E
:10136000A7130008FB681B68FA681268128B92B218
:1013700042F0710292B21A8320E0FB681B68FA689F
:101380001268128B92B242F4E24292B21A8315E0D2
:10139000FB681B68FA681268928B92B242F0710285
:1013A00092B29A830AE0FB681B68FA681268928B13
:1013B00092B242F4E24292B29A8300BF7B68013B50
:1013C000032B3FD801A252F823F000BFDD13000821
:1013D000F3130008191400082F140008FB681B6899
:1013E000FA681268128B92B242F0710292B21A83BA
:1013F00028E0FB681B68FA681268128B92B242F40C
:10140000E24292B21A831DE0000001400004004055
:1014100000080040000C0040FB681B68FA68126876
:10142000928B92B242F0710292B29A830AE0FB6808
:101430001B68FA681268928B92B242F4E24292B24E
:101440009A8300BF0123BB75FB681B68FA681268AA
:10145000128C92B290B2B97DBA68013A920001FA48
:1014600002F292B201460A4392B292B21A84FB6827
:101470001B68FA681268128C92B290B2B97D7A68D1
:10148000013A920001FA02F292B201460A4392B284
:1014900092B21A84FB681B68FA681268128992B2C9
:1014A00042F0030292B21A81FB681B68FA68126864
:1014B000128892B242F0010292B21A801837BD46E9
:1014C000B0BD00BF80B487B000AFF860B9607A608B
:1014D0000323FB75FB681B68FA681268128C92B2D2
:1014E00090B2F97D7A68013A920001FA02F292B262
:1014F00001460A4392B292B21A841C37BD465DF887
:10150000047B704780B483B000AF78607B681B6851
:101510005B6A18460C37BD465DF8047B704700BF18
:1015200080B485B000AFF860B9607A60FB68BA68D3
:101530001A60BB68284A93420BD0BB68274A934283
:1015400007D0BB68264A934203D0BB68254A934222
:101550001CD12549244B1A6CBB681F48834210D00C
:10156000BB681E48834209D0BB681D48834202D134
:101570004FF4002307E04FF4801304E04FF480237E
:1015800001E04FF4003313430B640BE01649164B94
:101590005A6CBB681548834201D1102300E0202318
:1015A00013434B64BB689B899BB243F400539AB2CC
:1015B000BB689A817B68B3F5165F04D1BB6840F2C3
:1015C00083621A8100E000BFFB6818461437BD46ED
:1015D0005DF8047B704700BF0044004000480040B5
:1015E000004C004000500040003802400010014014
:1015F000B0B487B000AFF860B9607A60FB681B6870
:10160000664A93421DD0FB681B68654A934216D018
:10161000FB681B68634A93420FD0FB681B68624AF1
:10162000934208D0FB681B68604A934201D10723AC
:1016300008E0082306E0082304E0072302E007236C
:1016400000E00723FB75BB681B68BA685268072A6D
:10165000CCBF01220022D2B21446BA681268B9681F
:1016600049680729CCBF01210021C9B2083152F8CD
:101670002120B9684868B9684968072901DD08214F
:1016800000E00021411A89000F2000FA01F1C9434E
:10169000114004F1080243F82210BB681B68BA68C5
:1016A0005268072ACCBF01220022D2B21546BA687E
:1016B0001268B96849680729CCBF01210021C9B265
:1016C000083152F82120F87DB9684C68B96849683A
:1016D000072901DD082100E00021611A890000FAD4
:1016E00001F1114305F1080243F822107B681B68E1
:1016F0007A685268072ACCBF01220022D2B214466F
:101700007A681268796849680729CCBF01210021ED
:10171000C9B2083152F82120796848687968496867
:10172000072901DD082100E00021411A89000F206E
:1017300000FA01F1C943114004F1080243F82210F4
:101740007B681B687A685268072ACCBF0122002296
:10175000D2B215467A681268796849680729CCBF01
:1017600001210021C9B2083152F82120F87D7968A1
:101770004C6879684968072901DD082100E00021EB
:10178000611A890000FA01F1114305F1080243F8DA
:1017900022101C37BD46B0BC704700BF001001408E
:1017A0000044004000480040004C00400050004011
:1017B00080B483B000AF78600B46FB7000BF7B68DD
:1017C0001B681B889BB29B11002B0CBF01230023BD
:1017D000DBB2002BF3D17B681B687A6812689289B0
:1017E00092B242F0080292B29A817B681B687A68D2
:1017F0001268928891B2FA7892B20A4392B29A80B1
:1018000000BF7B681B681B889BB29B11002B0CBF21
:1018100001230023DBB2002BF3D10C37BD465DF86A
:10182000047B704780B582B000AF7860396000BF3C
:101830007B681B681B889BB29B11002B0CBF01238C
:101840000023DBB2002BF3D17B681B687A68126837
:10185000928992B242F0080292B29A8108E03B6803
:101860001B7878681946FFF7A3FF3B6801333B609C
:101870003B681B78002BF2D10837BD4680BD00BF06
:1018800080B483B000AF03463960FB7197F907302D
:10189000002B0BDA0D49FB7903F00F03043B3A6888
:1018A000D2B21201D2B20B441A7609E0084997F974
:1018B00007303A68D2B21201D2B20B4483F8002347
:1018C0000C37BD465DF8047B704700BF00ED00E0BB
:1018D00000E100E080B582B000AF78607B68B3F1D2
:1018E000807F01D3012311E00A4A7B6823F07F4304
:1018F000013B53604FF0FF300F21FFF7C1FF054B55
:1019000000229A60034B07221A600023184608370A
:10191000BD4680BD10E000E080B485B000AF7860C7
:101920000EE04FF47A73FB6002E0FB68013BFB6062
:10193000FB68002BCCBF01230023DBB2002BF4D1CA
:101940007B685A1E7A60002B14BF01230023DBB290
:10195000002BE6D11437BD465DF8047B704700BF0D
:1019600080B400AF044B1B680133034A136000BF0F
:10197000BD465DF8047B7047940A002080B590B0A6
:1019800000AFFEF79BFCFEF7CDFC07F130031846D5
:10199000244905220023FEF71DFE07F12003184607
:1019A000204902220323FEF715FE07F11003184613
:1019B0001C4903220323FEF70DFE07F10C03184612
:1019C00019494FF41652FFF7ABFD07F10C0107F16F
:1019D000200207F11003084611461A46FFF708FED9
:1019E00007F10C0318461149FFF71CFF104B1B6849
:1019F000104AA2FB03239B091846FFF76BFF0E4B0F
:101A00001B683A4610460D491A4601F0C3FA07F121
:101A10000C023B4610461946FFF704FFFA20FFF779
:101A20007BFFECE70000024000440040B08B000860
:101A30009C010020D34D6210940A0020C48B000842
:101A400080B485B000AFF860B9607A603B60FB6835
:101A5000BA681A60FB687A685A60FB683A689A60EC
:101A6000FB68BA69DA60FB6818461437BD465DF852
:101A7000047B704780B485B000AF78600DE001232F
:101A8000FB6002E0FB68013BFB60FB68002BCCBF06
:101A900001230023DBB2002BF4D17B685A1E7A604D
:101AA000002B14BF01230023DBB2002BE7D1143736
:101AB000BD465DF8047B704780B584B000AF7860A8
:101AC0007B689A687B68DB6810461946FEF75AFD0A
:101AD0000346FB607B681B6818460121FEF796FFF2
:101AE0003C20FFF7C7FF7B689A687B68DB6810467D
:101AF0001946FEF747FD0246FB68D31AFB607B6878
:101B00001B6818460021FEF781FFFB68002B01DAF5
:101B10000023FB60FB6818461037BD4680BD00BF40
:101B200080B584B000AFF860B9607A603B60FB6854
:101B3000BA681A60FB687A685A60FB683A689A600B
:101B4000FB68BA69DA60FB68FA691A61FB683A6A8D
:101B50005A613868F969BA68FFF7F2F9B869396A01
:101B60007A68FFF7EDF9FB6818461037BD4680BD6F
:101B700080B582B000AF786039603B68002B12DD21
:101B80007B689A687B681B69104619463A68FFF7BC
:101B9000B9FA7B68DA687B685B69104619460022EF
:101BA000FFF7B0FA2AE03B68002B15DA3B685B428E
:101BB0003B607B689A687B681B6910461946002267
:101BC000FFF7A0FA7B68DA687B685B691046194604
:101BD0003A68FFF797FA11E07B689A687B681B699F
:101BE000104619466422FFF78DFA7B68DA687B6835
:101BF0005B69104619466422FFF784FA0837BD4630
:101C000080BD00BF03685A004CBF43F0004323F07F
:101C100000431844704700BF2DE9F04F83B099B3DB
:101C20004B1E1746054601939846002606EB08040E
:101C300004EBD47464104FEAC40A05EB0A0B58464F
:101C4000FFF7E0FF019B8146A3420AF10800284408
:101C50000ED0FFF7D7FFB94500F1FF3004D9B442E9
:101C60000CD004F1FF38E1E7B84203D2661CDDE78F
:101C7000B945F4D8584603B0BDE8F08F4FF0000BDB
:101C8000584603B0BDE8F08F8B46584603B0BDE818
:101C9000F08F00BF012807D0022807D0044B00288E
:101CA0000CBF184600207047024870470248704732
:101CB000A1230008A5230008A923000830B5244B60
:101CC00083B004468D1E7BB3284601A9AFF3008084
:101CD00020B301992A46FFF79FFF0546F0B1FFF7B1
:101CE00091FF6B68A064012B12D0002B05F104005A
:101CF00020DBFFF787FF0023E06423650368002BE8
:101D00001CDBFFF77FFF00232061184603B030BDC6
:101D1000002323610523184603B030BD002323614F
:101D20000923184603B030BD0A490B48091AC910E7
:101D30000191CFE70123E0642365DFE7C3F303608C
:101D4000FFF7A8FF002820610CBF09230023DCE770
:101D5000000000003C8F0008548E00080368DA077A
:101D600010B5044606D49B0700F1480009D500F0E1
:101D700085FC2368590709D51A070ED5DB0613D54C
:101D800010BD00F073FC23685907F5D404F1D000AE
:101D900000F07CFC23681A07F0D404F5A87000F06A
:101DA0007DFC2368DB06EBD404F5E870BDE8104049
:101DB00000F0B8BC03680BB1184470471846704770
:101DC00009207047704700BF70B504460D4608E013
:101DD0002B6C63610120236921462A469847082815
:101DE00008D12046296CFFF769FF06460028EFD08E
:101DF00000F0C4FE0728FBD13046296CFFF7E2FF54
:101E0000281D00F027FC00BF2DE9F0470C1D0646F9
:101E100017460FCCADF5727D03AD0FC50FCC0FC5C6
:101E20000FCC0FC594E80F0002AC4FF0000ED6F8AF
:101E30000C80D6F8189085E80F003046216CC4F865
:101E400000E0FFF73BFF002F05460CBF09270A27DC
:101E50007DB1A36B47F010018DE81002012063648F
:101E600032463346C04778BB28460DF5727DBDE843
:101E7000F087236C736121464FF4F0727AA800F06A
:101E8000BDFE336931467AAA38469847889B824618
:101E90008DE8100239466364012032463346C0475C
:101EA00090B920467AA94FF4F07200F0A7FEBAF17B
:101EB000080F06D13046216CFFF700FF09270546C1
:101EC000C6E7BAF1070F04D009200DF5727DBDE811
:101ED000F0872846216CFFF775FF03A800F0BAFBD6
:101EE000406C7047F0B5CB6B0B640E1D0F4604467B
:101EF0000FCEF9B001AD0FC50FCE0FC50FCE0FC578
:101F000096E80F004FF0FF3685E80F00009606E0D8
:101F1000236921466A4698470828054608D1204685
:101F20001099FFF7CBFE0028F2D0092079B0F0BD60
:101F30006846FFF713FF062DF7D120463946FFF715
:101F400043FF00BF30B4DD6BC160826119461D6480
:101F5000002230BC58E700BF70B5C66843690B6407
:101F600004460D4626B10122FFF74EFF00F006FEA3
:101F70000369214602202A469847072807D00828E7
:101F800003D120462946FFF71FFF00F0F7FD30463A
:101F9000296CFFF717FF281D00F05CFBC2681AB11F
:101FA000CA6B0A6400222FE79CE700BF704700BF9E
:101FB000836813B1014601201847704700B5042912
:101FC00007D8DFE801F00309060909000BB90F2A59
:101FD00005D902205DF804FB01205DF804FB00EB4D
:101FE000820218465368019A13605DF804FB00BF33
:101FF00000B585B00A4603AB002100930B46FFF7FE
:10200000DDFF039805B05DF804FB00BF00B50429AF
:1020100007D8DFE801F00309060909000BB90F2A08
:1020200005D902205DF804FB01205DF804FB01994D
:1020300000EB82020968516018465DF804FB00BF9E
:1020400010B584B004AB0C4643F8042D0021009376
:1020500022460B46FFF7DAFF04B010BDF0B5D36B94
:102060001364151D07460E460FCDADF50F7D17AC59
:102070000FC40FCD0FC40FCD0FC495E80F004FF064
:10208000FF3584E80F00169510E016A8FFF7D8FF7B
:10209000314616A8B847694616AA78B9049B0820A5
:1020A0009847052804460AD0092807D0269968468B
:1020B000FFF704FE6A460C210028E6D0092416A882
:1020C000FFF74CFE20460DF50F7DF0BD2DE9F04FDA
:1020D0000D46C96C8BB00C1D096807919046089499
:1020E00000F003091E46002B64D109020323079167
:1020F0008DF825608DF824302B6DB9F1020F08BFE3
:10210000AC6B13F0010343D100F00800C2B203929C
:1021100001932768002F3DD0022E47D02788B4F8BE
:1021200002A00434AB6C2AF0010B40460F219B4403
:10213000FFF75EFF834537D827F001039B445845DE
:102140002CBF002001200AF0010A07F0010747EA2E
:102150004A0ABAF1010F43D03AD3BAF1020F1FD1A4
:10216000236823F000420292B9F1000F7BD138B10D
:10217000039A002A00F08380029A002A00F0A680C9
:10218000002B7ADB029B03F1010A04EB8A04C0E70F
:1021900000230193022E40DDFFF712FE002842D0FB
:1021A00009200BB0BDE8F08F0020CCE7D4F804A0E4
:1021B0000834B7E7022B9FDC0B0CDFB209040222C4
:1021C0008DF8253004EB870407918DF8242093E7E0
:1021D000B9F1000F02D0002840F0AD80043498E738
:1021E000B9F1000F26D1B0B194E80C00D70F9A1CBA
:1021F000D6D005F158020133069200F09280201DDE
:10220000FFF7D8FD3A46014606AB2846AFF30080FB
:10221000002840F0B58008347BE7404607A900F06D
:102220001BFB0028BCD1019B002B59D108200BB00F
:10223000BDE8F08F40460D212F6AFFF7D9FE874297
:10224000E9D1AB6A9C42E6D12046FFF7DBFC0F21C7
:1022500002464046FFF7F4FE40462A460021FFF7BB
:10226000EFFE07209DE740460D212F6AFFF7C0FED5
:10227000874245D02368002B84DA043482E7029B2E
:1022800023B305F15803059604F1040A039FDDF812
:1022900008B0CDF810901E4602E0D9454F4615D043
:1022A00050460696FFF786FD0022014606AB2846FB
:1022B000AFF3008007F101090AF1040A0028ECD00D
:1022C000029BDDF81090059E9F42D3D140460D2120
:1022D000FFF78EFE069B2862AC626B62062060E709
:1022E0000F214046FFF784FE0E2102464046FFF7CD
:1022F000A7FE40460F21294AFFF7A2FE072050E71C
:10230000AB6A9C42B6D104220027A3180299A962A5
:10231000EF622A636B632368BB421FDB01230193D7
:1023200030E740460D21FFF763FE2862069B6B6293
:10233000AC62062035E72046FFF764FC043406460D
:10234000AC632846AFF3008000283FF429AF404635
:1023500032460F21FFF774FE072022E708460130BE
:1023600004EB8000FFF74EFC0F2102464046FFF7CA
:1023700067FE404639462A46FFF762FE072010E70F
:1023800007460D214046FFF733FE022F2862CDD1CC
:102390002B46069A43F82C2F6B62C9E70000000019
:1023A000002393E6012391E602238FE6F0B505466C
:1023B000C5B004290CD8DFE801F056030B300E003D
:1023C000012B4FEA124496B265D0052B00F08480B1
:1023D000022045B0F0BD002BFAD1102AF8D82B68A6
:1023E000DC0600F1EB8022AE3046019200F0A4F949
:1023F000A86B019A0023012404FA03F1114203D0CF
:10240000016846F8231004300133042BF4D1A8638B
:10241000304600F087F90020DBE7032BD8D1140CFD
:1024200097B23B19102BD3D82B681E0700F1E6801A
:1024300022AE30467F0000F053F906EBC4027B1E4B
:10244000AC6B57B1043A214651F8040B42F8040F23
:10245000013B581CF8D104EB87043046AC6300F014
:102460001DF90020B5E7002BB2D1AC6B97B2281D47
:10247000012606FA03F1394203F1010302D0216873
:1024800001600434102B00F10400F2D112F400506A
:1024900020D1AC639DE73219102A99D80F2C97D818
:1024A0002968C8074FF0000755D422A8019300F00F
:1024B000E1F8019B19E008463746012B00F09880AF
:1024C0000F2CA86302D822A800F0D8F817B102A8F0
:1024D00000F0DCF800207CE73719202F3FF678AFBA
:1024E0000F2C30D93746002E45D1A96B3246002E2D
:1024F000E1D0002744A84FEA420C00EBC4000CF1E5
:10250000FF328C388E465EF8046B40F8046F013A57
:10251000561CF8D101EB8C00002FCED0102C224697
:1025200044A938BF102201EBC202A2F5C4720146D1
:102530007800043A01EB800051F8046B42F8046F14
:102540008142F9D1B9E7102F42D92A68D007A7F103
:102550001007114610D521F00102052B2A600193C6
:1025600028465BD021F0030140F8481B00F082F8B8
:10257000019B002F4AD02A6851075BD4012B63D0FE
:102580000F2C04D822A8019300F07CF8019B002FA7
:10259000ABD002A8019300F07DF8019BA96BC4F1B8
:1025A0001002002AA6DC102C224644A838BF1022B4
:1025B00000EBC202A2F5C4727800BAE723F0100360
:1025C0002B6005F5E870019200F0B6F8019A0AE771
:1025D0002968C8071DD521F00102284642F00202F1
:1025E00040F8482B0193002700F04CF8019BC9E705
:1025F0000430A86322A800F039F86BE723F0080341
:102600002B6005F5A87000F06BF811E7012B3FF483
:102610004CAF0F2C98BF0027B4D966E742F00202F6
:1026200040F8482B00F02EF8019B002FAAD02A6812
:102630005107A5D5284622F0040240F8D02B01937B
:1026400000F028F8019B99E722A8019300F012F806
:10265000019BA3E700F1340191E838009C46A646AF
:102660004CF8045D90E8FF0FE54600BD90EC210BAF
:10267000704700BF80EC210B704700BF90EC200B2F
:10268000704700BF80EC200B704700BFD0EC200BE0
:10269000704700BFC0EC200B704700BFF0EC020198
:1026A000F0EC0211F0EC0221F0EC0231F0EC02410E
:1026B000F0EC0251F0EC0261F0EC0271F0EC0281FE
:1026C000F0EC0291F0EC02A1F0EC02B1F0EC02C1EE
:1026D000F0EC02D1F0EC02E1F0EC02F1704700BF47
:1026E000E0EC0201E0EC0211E0EC0221E0EC02314E
:1026F000E0EC0241E0EC0251E0EC0261E0EC02713E
:10270000E0EC0281E0EC0291E0EC02A1E0EC02B12D
:10271000E0EC02C1E0EC02D1E0EC02E1E0EC02F11D
:10272000704700BFB0FC0181B0FC0191B0FC01A179
:10273000B0FC01B1704700BFA0FC0181A0FC019179
:10274000A0FC01A1A0FC01B1704700BFEC4600B5A0
:102750002DE900502DE9FF1F4FF000032DE90C007B
:1027600001A9FFF7BFFBDDF840E012B0704700BFE2
:10277000EC4600B52DE900502DE9FF1F4FF0000396
:102780002DE90C0001A9FFF7E7FBDDF840E012B0EE
:10279000704700BFEC4600B52DE900502DE9FF1F42
:1027A0004FF000032DE90C0001A9FFF7F7FBDDF85E
:1027B00040E012B0704700BFEC4600B52DE9005074
:1027C0002DE9FF1F4FF000032DE90C0001ABFFF7CF
:1027D000B9FBDDF840E012B0704700BFEC4600B531
:1027E0002DE900502DE9FF1F4FF000032DE90C00EB
:1027F00001AAFFF733FCDDF840E012B0704700BFDC
:10280000037A1BB9437A43B9B02070475A1E036854
:1028100002721A020260180E70474268013B10B43F
:10282000437213680321141D01721A02446002608E
:102830005DF8044B180E704700B585B003AB00215E
:1028400000930C220B46FFF7B9FB039805B05DF827
:1028500004FB00BFF0E700BF2DE9F043064685B05A
:102860000D464FF000082846FFF7CAFFB02804467F
:1028700000F0B58020F07F0111F0FF0120D000F0C2
:10288000F003802B7AD0902B36D0A02B49D0B02BE0
:102890005CD0C02B00F0898000F0F803D02B0BD166
:1028A00000F00702013242F40022304601210523E4
:1028B000FFF77CFD0028D6D0092005B0BDE8F083E5
:1028C0000DF10C090B468700CDF8009030460D2223
:1028D000FFF774FBFFB2039BCDF80090043760064E
:1028E0004FF000014CBFDF1BFF1830460B460D2296
:1028F0000397FFF78BFBB6E700F00D030D2BDBD042
:1029000003AF002100F00F020B4600973046FFF79F
:1029100055FB002100970B4630460D22FFF776FB52
:10292000A1E7C34303F007034FF47F621A41010795
:1029300002F47F624FF0000148BF42F480420B4630
:102940003046FFF733FD0028B6D18CE7B1284CD0D4
:10295000B2285DD0B32800F08A8000F0FC03B42BCD
:10296000AAD000F007020132012142F400220B46F6
:102970003046FFF71BFD00289ED174E72846FFF77D
:102980003FFF24022043B0F5004F95D00401002101
:10299000A2B20B463046FFF709FD00288CD114F493
:1029A000004F18BF4FF001085DE7C62872D0C72856
:1029B0007AD000F0F803C02B00F08980C82800F01E
:1029C000A580C9287FF478AF2846FFF719FF00F0EB
:1029D0000F02013200F0F00042EA003265E7B8F180
:1029E000000F00F08280002067E72846FFF708FF0D
:1029F000024600283FF460AF10F0F0017FF45CAFB6
:102A000030460B46FFF7D2FC00287FF455AF2AE78B
:102A100000210DF10C090D220B46CDF80090304637
:102A2000FFF7CCFA2846FFF7EBFE02064FF0020450
:102A30000CD5039B00F07F00A0400344284603937D
:102A4000FFF7DEFE030604F10704F2D4039BCDF882
:102A5000009000F07F00A04003F5017300211C18D6
:102A60000D220B4630460394FFF7D0FAFBE62846CA
:102A7000FFF7C6FE00F00F02013200F0F000012166
:102A800042EA00320B463046FFF790FC00287FF404
:102A900013AFE8E62846FFF7B3FE00F00F0201325D
:102AA00000F0F0000321EBE72846FFF7A9FE0246FD
:102AB00000283FF401AF10F0F0037FF4FDAE304684
:102AC0000421FFF773FC00287FF4F6AECBE600F09C
:102AD0000F020132032142F420220B463046FFF759
:102AE00065FC00287FF4E8AEBDE603AC41460E224B
:102AF000434600943046FFF761FA00943046414661
:102B00000F224346FFF782FA4046D6E62846FFF7F3
:102B100077FE00F0F00200F00F031032013343EAB9
:102B20000232C2E610B5C36C84B05A6803208DF837
:102B30000C00DC798DF80D4012020833084601A91B
:102B400001920293FFF788FE04B010BD08B5FFF7AD
:102B500081FE806C08BD00BF08B5FFF77BFEC36C2B
:102B6000D87903EB8000083008BD00BF08B500F03D
:102B700005F800BF08B500F001F800BF08B5062051
:102B800000F0B2F9012006F001F800BF08B50021FD
:102B9000044601F095FC044B1868C36B03B19847D9
:102BA000204605F0F3FF00BFCC8B000870B50F4E38
:102BB0000F4D761BB61018BF002405D0013455F810
:102BC000043B9847A642F9D10A4E0B4D761B05F0FF
:102BD000DFFFB61018BF002406D0013455F8043BBF
:102BE0009847A642F9D170BD70BD00BF680A0020A9
:102BF000680A0020700A0020680A0020844641EA22
:102C0000000313F003036DD1403A41D351F8043B64
:102C100040F8043B51F8043B40F8043B51F8043BB6
:102C200040F8043B51F8043B40F8043B51F8043BA6
:102C300040F8043B51F8043B40F8043B51F8043B96
:102C400040F8043B51F8043B40F8043B51F8043B86
:102C500040F8043B51F8043B40F8043B51F8043B76
:102C600040F8043B51F8043B40F8043B51F8043B66
:102C700040F8043B51F8043B40F8043B51F8043B56
:102C800040F8043B51F8043B40F8043B403ABDD2C5
:102C9000303211D351F8043B40F8043B51F8043B67
:102CA00040F8043B51F8043B40F8043B51F8043B26
:102CB00040F8043B103AEDD20C3205D351F8043BF6
:102CC00040F8043B043AF9D2043208D0D2071CBFC2
:102CD00011F8013B00F8013B01D30B8803806046EB
:102CE000704700BF082A13D38B078DD010F0030361
:102CF0008AD0C3F10403D21ADB071CBF11F8013BD1
:102D000000F8013B80D331F8023B20F8023B7BE71F
:102D1000043AD9D3013A11F8013B00F8013BF9D24A
:102D20000B7803704B7843708B78837060467047E4
:102D300070B4840746D0541E002A41D0CDB2034659
:102D400002E0621EE4B3144603F8015B9A07F8D16F
:102D5000032C2ED9CDB245EA05250F2C45EA0545B1
:102D600019D903F110022646103E0F2E42F8105CCE
:102D700042F80C5C42F8085C42F8045C02F1100274
:102D8000F2D8A4F1100222F00F0204F00F04103266
:102D9000032C13440DD91E462246043A032A46F852
:102DA000045BFAD8221F22F003020432134404F019
:102DB00003042CB1C9B21C4403F8011BA342FBD18C
:102DC00070BC704714460346C2E700BF38B5D0F860
:102DD000DC4205460CB1002038BD802102F022FC07
:102DE000C5F8DC0250B12346224601E0D5F8DC02EA
:102DF000C2500433802BF9D1002038BD4FF0FF3092
:102E000038BD00BF1F29F8B50AD8D0F8DC42074604
:102E100016460D464CB154F8250044F82560F8BD1F
:102E2000162202604FF0FF30F8BDFFF7CFFF10B958
:102E3000D7F8DC42EFE74FF0FF30F8BD1F2938B577
:102E400022D8D0F8DC2205460C469AB152F821303F
:102E500083B1012B0CD0591C06D00025204642F826
:102E600024509847284638BD16230360012038BDFA
:102E7000002038BD284600F069F822460146284661
:102E8000BDE8384000F04EB8162303604FF0FF3025
:102E900038BD00BF1F2920D838B5D0F8DC32054630
:102EA0000C46A3B153F8242003EB84036AB1511CF0
:102EB00009D0012A05D0002520461D6090472846EC
:102EC00038BD032038BD022038BD012038BDFFF7D2
:102ED0007DFF28B9D5F8DC32E4E74FF0FF307047CA
:102EE0004FF0FF3038BD00BF024B01461868FFF7B6
:102EF000A5BF00BFD8050020024B0A46014618684E
:102F0000FFF780BFD8050020014B1868FFF75EBFB0
:102F1000D8050020024B01461868FFF7BBBF00BF71
:102F2000D805002038B5084C002305460846114650
:102F3000236005F015FE431C00D038BD2368002B2C
:102F4000FBD02B6038BD00BFDC0A002005F000BEBE
:102F50000CB4F0B59DB022AC0E4654F8042B02918F
:102F600023464FF4027E6FF000454FF6FF7702A92B
:102F700006960194ADF814E004950795ADF8167027
:102F800000F02EF8029B00221A701DB0BDE8F04040
:102F900002B070470EB4F0B59CB021AB0F4953F8A6
:102FA000042B019305466FF00044086802954FF426
:102FB00002774FF6FF7602A90695ADF814700494D7
:102FC0000794ADF8166000F00BF8029B00221A700F
:102FD0001CB0BDE8F04003B0704700BFD80500202A
:102FE0002DE9F04FBFB0894606920A93049002F093
:102FF00009FB03681393184603F060FCB9F80C3022
:1030000014901A0604D5D9F81030002B01F0A180D5
:103010009FED997B8DED107B00232EAF0F932393B3
:10302000229312931593079321973C464E46069D93
:103030002B78002B00F0A980252B02D1A5E0252BB1
:1030400003D015F8013F002BF9D1069BEB1A73B1A1
:10305000229A23990698206001321944072A636056
:103060002391229272DC0834079A1A4407922B7833
:10307000002B00F0CB870023691C6D788DF867303A
:103080001A46089303934FF0FF3A4B1CA5F1200119
:10309000582900F2E483DFE811F07702E203E2034B
:1030A0007B03E203E203E203E203E203E203F7024B
:1030B0001402E203FB011802E2038203C102C1020F
:1030C000C102C102C102C102C102C102C102E203C6
:1030D000E203E203E203E203E203E203E203E203C8
:1030E000E203D0029103E2039103E203E203E2036D
:1030F000E2037403E203E2030C03E203E203E203EC
:10310000E203E2032A03E203E2034403E203E203ED
:10311000E203E203E203E203E203E203E203E20387
:103120005F03330291039103910305033302E2032A
:10313000E203ED02E20385020202CB037E02E20318
:103140009902E2037A00E203E20351020498039336
:10315000314621AA03F0E0FB50B93C46039B83E7CC
:103160000498314621AA03F0D7FB002800F08C8197
:10317000B146B9F80C3013F0400F079B18BF4FF061
:10318000FF3318463FB0BDE8F08F069D6FE706930A
:10319000039B980640F1B4820A9B03F1070929F0CA
:1031A000070303F10802D3E900890A9201234FF0D3
:1031B000000C8DF867C0CDF834A0BAF1000F03DB26
:1031C000039A22F08002039258EA090240F05783E2
:1031D000BAF1000F00F05C84012B00F05A83022B3F
:1031E00000F09A8439464FEAD80242EA49724FEA1F
:1031F000D90008F0070381469046303358EA0902A7
:1032000001F8013DEFD1039A0C91D20700F16E85D0
:103210007B1A0993099A92455346B8BF1346059302
:1032200000230E93BCF1000F02D0059B01330593E0
:10323000039B13F002030B9302D0059B023305930B
:10324000039B13F0840940F01783089B059AC2EB97
:103250000308B8F1000F40F30F83B8F1100F239962
:10326000229ADFF81CA030DD53464FF0100BC24607
:10327000A8461D460DE000BF000000000000000051
:10328000E08B0008AAF1100ABAF1100F04F108044B
:1032900017DD01321031072A2391229284E8200899
:1032A000F0DD0498314621AA03F036FB00287FF4B4
:1032B0005FAFAAF1100ABAF1100F2399229A3C4687
:1032C000E7DC2B464546D0469A46013208EB010B17
:1032D000072ACDF88CB02292C4F800A0C4F804806C
:1032E00000F37E849DF867C00834BCF1000F0FD056
:1032F000229B01330BF1010B0DF167010122072B1A
:10330000CDF88CB0229384E8060000F3EA830834F9
:103310000B9B73B1229B01330BF1020B1AA9022202
:10332000072BCDF88CB0229384E8060000F3CD8300
:103330000834B9F1800F00F015830D9B099AC2EB98
:10334000030ABAF1000F3CDDBAF1100F229ADFF840
:1033500064942BDD49465B46A9464FF01008DDF822
:1033600010B00D4606E0AAF1100ABAF1100F04F1F0
:10337000080417DD01321033072A2393229284E8D0
:103380002001F0DD5846314621AA03F0C5FA002895
:103390007FF4EEAEAAF1100ABAF1100F239B229A25
:1033A0003C46E7DC9B462B464D4699460132D344CA
:1033B000072ACDF88CB0229284E8000600F37983C6
:1033C0000834039BD90500F17082229B09990C9A5D
:1033D000226001338B44072BCDF88CB061602293BF
:1033E00000F34A830834039B5A0741D5089B059A8A
:1033F0009D1A002D3CDD102D229BDFF8BCA323DDA0
:103400004FF010085A46DDF8109004E0103D102DE2
:1034100004F1080417DD01331032072B23922293A5
:10342000C4F800A0C4F80480F0DD4846314621AA63
:1034300003F072FA00287FF49BAE103D102D239A02
:10344000229B3C46E7DC93460133AB44072BCDF887
:103450008CB02293C4F800A0656009DD0498314661
:1034600021AA03F059FA00287FF482AEDDF88CB06F
:10347000079B059A08998A42ACBF9B185B18079373
:10348000BBF1000F7FF46CAE002322933C46CEE5E7
:10349000194603981D7840F004000390F5E5069363
:1034A000039B13F0200300F00E810A9B03F1070930
:1034B00029F0070303F10802D3E900890A920023E7
:1034C00075E61D7819462B22DFE51D782A2D03F1BC
:1034D000010100F0B887A5F1300009280B464FF034
:1034E000000A3FF6D3AD13F8015B0AEB8A0A00EB42
:1034F0004A0AA5F130000928F5D94AEAEA7AC5E571
:103500000693039B8DF867209B0640F1A1800A9BE0
:1035100003F1070929F00709D9E9002309F1080196
:103520000A9190469946002A73F10003C0F20E8476
:103530009DF867C0CDF834A001233EE606939B4B6F
:103540001293039B8DF867209B0640F1F3800A9B42
:1035500003F1070929F00703D3E9008903F1080201
:103560000A92039BD90740F1F58058EA090300F05D
:10357000F180039A8DF86950302342F002028DF8F1
:1035800068300392022312E61D781946002A7FF460
:103590007CAD202279E5039941F0200103911D784B
:1035A000194672E50693039B8DF867209A0640F151
:1035B000B08407990A9A4FEAE17913680846884669
:1035C000043249460A92C3E9000130E50A9A06939B
:1035D00013680C934FF0000B8DF867B002F10409EB
:1035E000002B00F04686BAF1000F0C98C0F2F68569
:1035F0005946524602F0A8FA002800F077860C9B44
:10360000CDF834B0C31A0993CDF8289023EAE373B8
:103610000593CDF838B09DF867C003E6A5F13000FA
:10362000002113F8015B01EB810100EB4101A5F1E1
:1036300030000928F5D9089128E50693039B8DF8F9
:10364000672043F010030393039B9B063FF55FAF96
:10365000039BD80600F16B83039B590640F16783F7
:103660000A99B1F9008004314FEAE87942464B46A5
:103670000A9158E71D7803996C2D00F0D38441F02E
:1036800010010391194600E50A9D29680891084632
:103690000028294601F10401C0F2CB840A911D786B
:1036A0001946F2E4039941F0400103911D7819464F
:1036B000EBE40693039B43F010030393039B13F087
:1036C00020037FF4F2AE039A12F0100240F01C8344
:1036D000039B13F0400300F017830A9913460A4630
:1036E0000432B1F800800A924FF000095FE50693BA
:1036F000039B43F010030393039B98063FF54CADE7
:10370000039BD90600F10983039B5A0640F1058308
:103710000A9AB2F8008004324FF0000901230A929D
:1037200045E50693224B1293039B8DF867209B0679
:103730003FF50DAF039BD80640F1DC830A9A134690
:103740001B689846039B0432D9070A924FF0000980
:103750003FF50BAF02232AE50A9906930A688DF814
:1037600090200023012204319C4605920A918DF895
:10377000673024ABCDF834C0CDF838C009920C9333
:1037800056E5039941F0080103911D7819467CE440
:10379000039941F0010103911D78194675E40399DD
:1037A00041F0800103911D7819466EE4148C0008E5
:1037B000008C0008D08B0008E08B00080693039B68
:1037C0008DF8672013F0080F0A9BD34603F1070911
:1037D00000F0868329F0070393ED007B8DED107BCD
:1037E00003F108020A929DED100B02F0B9FE0128C8
:1037F00040F05A83DDE910010022002304F08AFE24
:10380000002840F06B859DF867C0039BBD4ADFF838
:1038100000E323F080030393134603210020472D88
:10382000D8BF734605910D900C9309910E90F9E461
:103830000A9803990693302203688DF8682002469F
:10384000782541F0020104329846AF4B1293039160
:103850000A924FF000098DF869500223A7E40693FD
:103860008DF86720002D00F0D183002301229C46B3
:1038700005928DF890507AE7DDF88CB035E5012B94
:103880007FF4ADACB9F1000F08BFB8F10A0F80F0BA
:103890000D820DF1F80B08F130080BF8418DCBEBE0
:1038A00007030993CDF830B0B4E4652D40F3A08050
:1038B000DDE910010022002304F022FE002800F0C0
:1038C0004481229B914A226001330BF1010B0122BA
:1038D000072BCDF88CB02293626000F33F8308344D
:1038E0001B9B0F9A934203DB039BDA077FF57BADAB
:1038F000229B1499139A226001338B44072BCDF835
:103900008CB06160229300F39B8308340F9B5D1E93
:10391000002D7FF768AD102D229BDFF8F89140F362
:10392000B9814FF010085A46DDF810A004E00834C1
:10393000103D102D40F3AD8101331032072B23923F
:103940002293C4F80090C4F80480F0DD504631465C
:1039500021AA02F0E1FF00287FF40AAC239A229BFF
:103960003C46E5E7089B059AC2EB030ABAF1000F53
:103970007FF7E3ACBAF1100F229ADFF898912BDDB4
:1039800049465B46A9464FF01008DDF810B00D46D9
:1039900006E0AAF1100ABAF1100F04F1080417DDCD
:1039A00001321033072A2393229284E82001F0DDAC
:1039B0005846314621AA02F0AFFF00287FF4D8AB69
:1039C000AAF1100ABAF1100F239B229A3C46E7DCB9
:1039D0009B462B464D4699460132D344072ACDF8E3
:1039E0008CB0229284E8000600F351820834A4E4EB
:1039F0000F9B229D012B40F31F820C9B23600135FE
:103A00000BF101030122072D23932295626000F33D
:103A10002582083414996160013503EB010B072DF1
:103A2000139BCDF88CB02295236000F323820834D9
:103A30000023DDE91001002204F062FD0F9B002845
:103A400040F0DD800C9A013B013501329B44072D8B
:103A50002295CDF88CB02260636000F30D810834AC
:103A6000159A6260013593441DAB072DCDF88CB0DB
:103A7000229523607FF7B6AC0498314621AA02F064
:103A80004BFF00287FF474ABDDF88CB03C46AAE411
:103A9000002B32D1039BD8072FD50DF1F80B302323
:103AA0000BF8413DCBEB07030993CDF830B0FFF79E
:103AB000B1BB0498314621AA02F02EFF00287FF402
:103AC00057ABDDF88CB03C467BE40498314621AA24
:103AD00002F022FF00287FF44BABDDF88CB03C46AF
:103AE00027E40498314621AA02F016FF00287FF44B
:103AF0003FABDDF88CB03C460AE4CDF824A00C972F
:103B0000FFF788BBF48B0008148C0008308C000889
:103B1000F08B0008D08B00081298BB464FEA1813B0
:103B200008F00F0143EA09734FEA191298469146CB
:103B3000435C0BF8013D58EA0903EFD15B46CDF831
:103B400030B0FB1A0993FFF765BB1B9D002D40F3B6
:103B500011820F9A0E998A421346A8BF0B461D4642
:103B60000C99002D01EB020A0BDD229B2160013331
:103B7000AB44072BCDF88CB06560229300F35583DE
:103B800008340E9B002DA8BF5B1B002B1D4640F385
:103B9000F580102D229BDFF8089640F3D2815A461B
:103BA0004FF01008DDF810B004E00834103D102D7F
:103BB00040F3C68101331032072B23922293C4F8BD
:103BC0000090C4F80480F0DD5846314621AA02F086
:103BD000A3FE00287FF4CCAA239A229B3C46E5E76B
:103BE0000498314621AA02F097FE00287FF4C0AA6B
:103BF0009DF867C0DDF88CB03C46FFF776BB03F15B
:103C0000FF38B8F1000F7FF72BAFB8F1100FDFF8D6
:103C1000909525DD5B464FF0100ADDF810B006E008
:103C2000A8F11008B8F1100F04F1080417DD0135F0
:103C30001033072D2393229584E80006F0DD5846C3
:103C4000314621AA02F068FE00287FF491AAA8F16B
:103C50001008B8F1100F239B229D3C46E7DC9B46E1
:103C60000135C344072DCDF88CB02295C4F80090DF
:103C7000C4F804807FF7F3AE0498314621AA02F01D
:103C80004BFE00287FF474AADDF88CB0229D3C46E0
:103C9000E6E693460133AB44072BCDF88CB0229374
:103CA000C4F8009065607FF79DABE5E6BB46CDF8B4
:103CB00014C0404649460A22002304F07BFC3032FF
:103CC000404649460BF8012D00230A2204F072FCFD
:103CD0008046894658EA0903EBD15B46FB1ADDF8BA
:103CE00014C0CDF830B00993FFF794BA302B0C9B79
:103CF0003FF427AF013B1A460C93BA1A30230992BE
:103D000001F8013CFFF786BA0A990A6804310A9162
:103D100090464FF00009FFF74ABA0A990A68043141
:103D200001230A9190464FF00009FFF740BA0A9A22
:103D3000136898464FEAE3791346043342460A93E0
:103D4000002A4B4673F10003BFF6F2AB4FF02D0C87
:103D5000D8F1000869EB49098DF867C0CDF834A0A7
:103D60000123FFF72ABA0498314621AA02F0D4FDB4
:103D700000287FF4FDA9DDF88CB03C460C9A0E9922
:103D80001B9B0A4490460F9A934246DB039AD00746
:103D900043D40F9AC8EB0A05D31A9D42A8BF1D460B
:103DA000002D0CDD229AC4F800800132AB44072AB2
:103DB000CDF88CB06560229200F36F820834002D3C
:103DC000ACBF5D1B1D46002D7FF70DAB102D229B58
:103DD000DFF8CC937FF75EAF4FF010085A46DDF85E
:103DE00010A004E00834103D102D7FF752AF0133CE
:103DF0001032072B23922293C4F80090C4F8048059
:103E0000F0DD5046314621AA02F086FD00287FF4FD
:103E1000AFA9239A229B3C46E5E7229A149813996E
:103E2000216001328344072ACDF88CB06060229271
:103E300000F307820834ACE7039BD9073FF5DDADFB
:103E40000C9B236001350BF1010B0123072DCDF8ED
:103E50008CB0229563607FF702AE0DE7049831467F
:103E600021AA02F059FD00287FF482A9239B229DFC
:103E70003C46CFE50498314621AA02F04DFD0028CA
:103E80007FF476A9DDF88CB0229D3C46D0E50498FD
:103E9000314621AA02F040FD00287FF469A9DDF82F
:103EA0008CB03C46FFF749BA9DED100B02F058FB71
:103EB000002840F0D1808646B64AB74B0D90039853
:103EC0009DF867C0CDF838E0032120F08000472D31
:103ED000D8BF1A46059103900C920991FFF7A2B939
:103EE00029F0070999ED007B09F108038DED107B9E
:103EF0000A9378E4039B0A9A13F0400F13463FF4A9
:103F00001FAC0433B2F800800A934FF00009FFF7AA
:103F100028BB039BDB060BD4039B5D0608D50A9ADE
:103F2000136804320A92BDF81C201A80FFF77FB88C
:103F30000A9A136804320A92079A1A60FFF777B850
:103F400093460133AB44072BCDF88CB02293C4F8D1
:103F5000009065603FF707AF08340FE704983146DB
:103F600021AA02F0D9FC00287FF402A9DDF88CB068
:103F70003C46B5E4229B894A226001330BF1010BD8
:103F80000122072BCDF88CB02293626000F3F18000
:103F900008342DB90F9B1BB9039BDB077FF523AAC0
:103FA000229B1498139A226001330BEB0001072B1C
:103FB00023916060229300F3EF8104F108026D42C7
:103FC000002D40F3FA80102DDFF8D49140F34681A4
:103FD0001024DDF8108004E00832103D102D40F36D
:103FE0003D8101331031072B23912293C2F80090B9
:103FF0005460F1DD4046314621AA02F08DFC0028D4
:104000007FF4B6A82399229B3A46E6E7239BB14664
:10401000002B3FF4AEA80498314621AA02F07CFCA4
:10402000FFF7A7B841F0200103915D78591CFFF715
:104030002CB808980A91404208901946FFF729BA0F
:104040000498314621AA02F067FC00287FF490A86A
:10405000DDF88CB03C4659E425F02003BAF1FF3F6F
:10406000059300F09380472B05D1BAF1000F14BFE0
:10407000D3464FF0010B119B039A002B42F4807240
:104080000B92C0F2A4819DED107B8DED167B4FF05D
:10409000000A662D00F0AC80462D00F0A980059B3B
:1040A0000498452B0CBF0BF10109D9461CAA1FAB84
:1040B0008DE80C009DED160B02214A461BAB00F06B
:1040C00007FB672D0C9002D0472D40F09F80039B8B
:1040D000DB0740F192810C9B03EB0908DDE9160137
:1040E0000022002304F00CFA002840F0FD801F9B02
:1040F000984506D930215A1C1F9219701F9B98456C
:10410000F9D80C9A9B1A0F93059B472B1B9B00F029
:10411000DE80652D40F3F880662D0E9300F06081FF
:104120000F9B0E9A934200F34481039BD90700F141
:10413000668122EAE2730992BAF1000F40F0BC8076
:1041400005930B9B0393CDF834A09DF867C0FFF750
:1041500069B80498402101F065FAC9F80000C9F86F
:104160001000002800F097814023C9F81430FEF7B2
:104170004FBF0498314621AA02F0CEFB00287EF4FE
:10418000F7AF1B9DDDF88CB03C4602E74FF0060B05
:1041900071E700BFFC8B0008F88B0008308C00082A
:1041A000D08B00080498314621AA02F0B5FB002804
:1041B0007EF4DEAF2399229B3A460F9C5460013374
:1041C00001EB040B072B0C99CDF88CB022931160F6
:1041D0003FF752AC02F10804FFF705B9CDF834B04F
:1041E00002F06CFBCDF8289009900346FFF70EBA59
:1041F0001CAA1FAB8DE80C0004989DED160B032143
:104200005A461BAB00F064FAD9460C900C9B03EBAA
:104210000908059B462B7FF461AF0C9B1B78302B64
:1042200000F003811B9B984458E70498314621AA6B
:1042300002F072FB00287EF49BAFDDF88CB03C46A8
:104240009FE40498314621AA02F066FB00287EF420
:104250008FAF1B9BDDF88CB03C469AE501332944B7
:10426000072B23912293C2F8009055609ADC083204
:10427000A3E75346062B28BF0623099323EAE373DB
:10428000DDF830C00593874BCDF82890CDF834C0C9
:10429000CDF838C00C93FEF7C5BF0498314621AA6B
:1042A00002F03AFB00287EF463AF1B9B0F9ADDF807
:1042B0008CB0D31A3C4682E505930B9B03934FF0D9
:1042C0002D0C00238DF867C00D93FEF7AEBFDA1CEE
:1042D00019DB9B4517DB0E93672521E74FF02D0C6B
:1042E0008DF867C0FFF791BA43460AE72AEAEA73F6
:1042F0000D90CDF828900E909DF867C00593CDF8ED
:1043000024A0FEF78FBF023D013B002B1B93BABFD9
:104310005B422D222B22092B8DF874508DF87520CD
:104320007BDD0DF1830E70465F4A82FB0321DA17B5
:10433000C2EBA10202EB8201A3EB410303F13001C6
:10434000092A134600F8011DEEDC02463033D9B2CB
:1043500002F8011D964540F29B800DF1760203465E
:1043600001E013F8011B02F8011B7345F9D121ABE1
:104370001B1A0DF1760213441DAA9B1A0F9A15936E
:10438000012A1344099374DD099B00220133099328
:104390000E9223EAE373CFE60498314621AA02F095
:1043A000BBFA00287EF4E4AE1B9D2399229B3A467B
:1043B00005E60E9B002BD8BFC3F102080F9BC8BFB8
:1043C0004FF001084344099323EAE373B4E6DDE9BF
:1043D000100101F10043169017934FF02D0A58E693
:1043E000002B3DDDBBF1000F0FD1039BDB070CD48D
:1043F0000E9A099222EAE2739EE61F9B81E60E9BCB
:104400000133099323EAE37396E60E9B0BF101084F
:104410004344099323EAE3738EE6303330228DF868
:1044200077308DF876201EABA6E7DDE91601002275
:10443000002304F065F800287FF4F4AEC9F101030D
:104440001B9398444AE60A9DD5F800A028460430FC
:10445000BAF1000F5D780A90BEF617AEFEF713BEF4
:10446000BBF1000F0ED1039BD8070BD40123099396
:1044700062E6039B13F0010386D10E93099B23EAA6
:10448000E37359E60BF10203099323EAE37353E65E
:104490000DF1760370E7049A0C2313604FF0FF30A0
:1044A000FEF770BE288C000867666666024B13B183
:1044B000024800F06FB87047000000007555000812
:1044C0002DE9F04F314B83B01B68009303F5A473C3
:1044D00081460E460193009BD3F8487127B3DDF85F
:1044E00004A07C68651E0ED4013407EB84044FF0F1
:1044F0000008E6B1D4F80031B34218D0013D6B1C7E
:10450000A4F10404F5D1224B73B17B68002B36D1A2
:104510003B68002B34D03846CAF80030AFF3008037
:10452000DAF80070002FDCD103B0BDE8F08F7B68B3
:104530002268013BAB420CBF7D60C4F80080002ABA
:10454000DCD0D7F88831D7F804B00121A94019424E
:1045500008D190477B685B45BDD1DAF80030BB429B
:10456000CCD0B8E7D7F88C31194204D14846D4F8FA
:1045700080109047EEE7D4F880009047EAE73B6868
:10458000BA461F46002FACD1CEE700BFCC8B000847
:1045900000000000014600200246034602F08EBFE4
:1045A00002690B69934200F38F802DE9F04F03F10C
:1045B000FF3801F1140700F1140B57F828205BF8BD
:1045C00028304FEA880483B00132B3FBF2F90BEBD9
:1045D0000403009407EB040A0193B9F1000F3BD0E8
:1045E00000263246BC46DE4634465CF8046BDEF8F4
:1045F0000050B3B2360C03FB094406FB09F606EB88
:104600001446A3B2D31AB4B213FA85F3C4EB15441B
:1046100004EB23449BB243EA0443E2454FEA2442BD
:104620004EF8043B4FEA1644DFD2009B5BF80330A0
:1046300093B9019C231F9B450CD254F8043C4BB901
:10464000A4F1080302E01A68043B1AB99B4508F17B
:10465000FF38F8D3C0F81080044601F019FD002897
:104660002EDB09F101095D46002357F8041B286879
:104670008AB29A1A090C12FA80F2C1EB104303EBCA
:10468000224391B241EA0341BA4545F8041B4FEA7F
:104690002343EAD25BF828200BEB880382B91A1F68
:1046A00093450BD253F8042C42B9083B02E01A6838
:1046B000043B1AB99B4508F1FF38F8D3C4F81080C1
:1046C000484603B0BDE8F08F0020704700000000AE
:1046D0002DE9F04F99B004460391016C229D04939B
:1046E00092468DED000B41B1426C4A60012393402C
:1046F0008B6001F09DFA00232364DDE90023002B89
:10470000994636DB00232B60A54B1A4609EA0303C2
:10471000934217D0DDE90067002200233046394676
:1047200003F0EEFE804600282BD0049A012313608C
:10473000239B002B00F0CC809A481860013819B0F8
:10474000BDE8F08F049A42F20F731360009B002BB8
:1047500000F0A7809448239B002BF0D0C378002B57
:1047600000F0B88000F10803239A136019B0BDE887
:10477000F08F019A012322F000492B60CDF80490BC
:10478000C2E7204647EC106B17A916AA01F098FD66
:104790005FEA1955834640F08D80DDF85880179DFB
:1047A0006FF4826345449D42C0F29E827F4A521B51
:1047B00009FA02F9009A05F2124322FA03F049EAD3
:1047C000000003F0BFFB0123013DA1F1F8710F933D
:1047D0000022774B03F078FA6BA3D3E9002303F0B0
:1047E00027FC6BA3D3E9002303F070FA06462846A2
:1047F0000F4603F0B7FB68A3D3E9002303F018FCCE
:1048000002460B463046394603F060FA06460F462C
:1048100003F0A8FE3946059000223046002303F03D
:1048200079FE002840F0AB81059B162B00F2A48195
:10483000059A604B03EBC203D3E90001DDE90023D5
:1048400003F086FE002800F05582059B013B05938E
:1048500000230D93C5EB08056B1E069300F1A6819E
:1048600000230793059B002BC0F29781069A0C93B7
:1048700011461944002306910A93039B092B2BD858
:10488000052B40F37386043B03930027039B023BF5
:10489000032B00F25186DFE813F0D103C403B60204
:1048A0006606414B444AC9F31300002814BF18465A
:1048B000104650E7C7F3130343F07F51CDF83C8017
:1048C0003046A5F2FF3541F44011DDF858807FE70E
:1048D0003A4834E7C31C47E70021616420468A4612
:1048E000039101F07FF94FF0FF3308930E930123FA
:1048F000099020640B93179B002BC0F2D380059A7C
:104900000E2A00F3CF802B4BBAF1000F03EBC2034A
:10491000D3E90089C0F29583DDE9006742464B4642
:104920003046394603F0AEFC03F01CFE824603F02D
:1049300019FB42464B4603F07BFB0B4602463946C9
:10494000304603F0C1F9099D0AF130032B70089B32
:10495000012B06460F4605F1010563D00022184BD6
:1049600003F066FB0022002306460F4603F0C8FD55
:10497000002840F08480CDF800B00394DDF824B026
:10498000089C2AE0AFF3008061436F63A787D23FA2
:10499000B3C8608B288AC63FFB799F501344D33F2E
:1049A0000000F07F318C0008408C00080EFCFFFFF7
:1049B0000000F83F508C0008348C0008308C000850
:1049C0000000244003F034FB0022002306460F467B
:1049D00003F096FD002840F0E48342464B46304603
:1049E000394603F04FFC03F0BDFD824603F0BAFAEE
:1049F00042464B4603F01CFB02460B463046394606
:104A000003F062F90AF1300E05F801EBCBEB050E6D
:104A1000744506460F464FF00002B74BD2D1DDF881
:104A200000B0039C32463B463046394603F04EF90F
:104A300006460F464046494632463B4603F06AFD6D
:104A400048B94046494632463B4603F059FDB0B1AD
:104A50001AF0010F13D015F8018C09996B1E04E0B0
:104A60008B4200F0488413F8018DB8F1390F03F13F
:104A700001051A46F4D008F10103DBB21370204699
:104A8000594601F0D5F80022059B2A70049A01339B
:104A90001360239B002B00F04B8309981D6019B015
:104AA000BDE8F08F0B9A002A00F08580039A012A56
:104AB00040F30A83089B5F1E0A9BBB42C0F2A68399
:104AC000DF1B089B002BC0F2A484079D089B079A5C
:104AD0001A440792069A20461A440121069201F0D0
:104AE0008DF9064665B1069900290B4608DDA942F5
:104AF000079AA8BF2B46D21AED1ACB1A0792069333
:104B00000A9B002B1ADD0B9B002B00F07883002FF3
:104B100010DD31463A46204601F014FA06465A4660
:104B20003146204601F074F959468046204601F08E
:104B30007FF8C3460A9BDA1B40F0A582204601217C
:104B400001F05CF90C9B002B804638DD01461A46CB
:104B5000204601F0F7F9039B012B804640F3998230
:104B60004FF00009D8F8103008EB8303186901F002
:104B7000F7F8C0F120002CE001230D936AE60598B8
:104B800003F0F0F932463B4603F0BAFC00287FF40C
:104B90004BAE059B013B059346E6079A059BD21A4F
:104BA0005B420A93002307920C9366E65B420793ED
:104BB0000023069356E60A9F079D0B9E92E7039BF0
:104BC000012B40F3B8824FF000090C9B002BC9D198
:104BD0000120069B184410F01F0000F08380C0F1F4
:104BE0002003042B40F3B984C0F11C00079B03444D
:104BF0000793069B034405440693079B002B05DDA2
:104C000059461A46204601F0EDF98346069B002BD3
:104C100005DD41461A46204601F0E4F980460D9B29
:104C2000002B40F06A82089B002B40F397820B9B7D
:104C3000002B71D1DDF82490089F4D4602E001F071
:104C400001F8834641465846FFF7AAFC00F1300CB4
:104C500005F801CBC9EB0503BB42204659464FF08E
:104C60000A024FF00003EADB099B089A012AACBF55
:104C70009B1801331D464FF0000A59460122204679
:104C8000CDF800C001F0AEF94146834601F000FACC
:104C90000028DDF800C040F3EF8215F8012C0999D7
:104CA0006B1E04E08B4200F0758213F8012D392A47
:104CB00003F10105F6D001321A704146204600F09A
:104CC000B7FF002E3FF4DBAEBAF1000F05D0B245BE
:104CD00003D05146204600F0ABFF3146204600F09D
:104CE000A7FFCCE61C2081E7044B009A5B1B02FA6D
:104CF00003F066E50D90ADE500002440EEFBFFFFFC
:104D00003146002320460A2200F09CFF0E9B002B18
:104D1000064640F30B840893002D05DD31462A46F4
:104D2000204601F05FF90646B9F1000F40F0ED8230
:104D3000B146089B099A013BD3180893009B03F0E6
:104D400001030A93174641465846FFF729FC3146AE
:104D50000546584601F09CF94A468246414620469F
:104D600001F0BAF9C268034605F1300C002A40F0A0
:104D7000BA8119465846CDF81CC0069301F088F94F
:104D8000069B00901946204600F052FF009ADDF87D
:104D90001CC02AB9039B1BB90A9B002B00F0AA83F5
:104DA000BAF1000FC0F24A8205D1039B1BB90A9BDE
:104DB000002B00F04382002A00F3BB82089B87F897
:104DC00000C007F1010A9F42554600F0BE825946D5
:104DD0000A220023204600F035FF4E458346314627
:104DE00020464FF00A024FF0000300F0768100F0F9
:104DF00029FF494606460A222046002300F022FFEA
:104E0000574681469FE701230B93BAF1000F40F309
:104E10000C8256465546CDF838A0CDF820A000218A
:104E2000172E61640AD9012204235B0003F11400E8
:104E30008642114602F10102F7D26164204600F079
:104E4000D1FE0E2D099020643FF655AD002F3FF4A2
:104E500052AD9DED007B059900298DED107B40F34F
:104E60002382B74B01F00F020D1103EBC203E906D9
:104E7000D3E9006740F1D281B24B51EC170BD3E973
:104E8000082303F0FFF9CDE9000105F00F054FF00D
:104E900003088DB1DFF8AC9230463946EA0705D5F4
:104EA000D9E9002303F0C4F808F101086D1009F1F5
:104EB0000809F3D106460F46DDE9000132463B46BC
:104EC00003F0E0F9CDE900010D9B43B1DDE90001FC
:104ED00000229D4B03F01EFB002840F0AE824046AE
:104EE00003F040F8DDE9002303F0A2F8974B00221D
:104EF00002F0ECFE089B0646A1F15077002B00F073
:104F00006281059BDDF8209014930B9B002B00F031
:104F100023828B4B8E4903EBC90353E90223002004
:104F200003F0B0F932463B4602F0CEFEDDE9006701
:104F3000CDE912013946304603F014FB054603F073
:104F400011F8303502460B463046394602F0BCFEB9
:104F50005FFA85F8099DDDE9122385F80080064691
:104F60000F46013503F0D6FA002840F0A7823246FA
:104F70003B460020744902F0A7FE02460B46DDE9DD
:104F8000120103F0E5FA002840F0AD82B9F1010FFB
:104F900040F38481099BCDF800B0CDF854A099442A
:104FA000A046DDE912AB0DE00020674902F08CFE5F
:104FB00052465B4603F0AEFA002840F08F824D4522
:104FC00000F06781504659460022624B03F030F8EA
:104FD0000022604B82468B463046394603F028F863
:104FE0000F46064603F0BEFA044602F0BBFF024637
:104FF0000B463046394602F067FE3034E4B2524682
:105000005B4605F8014B06460F4603F083FA32462D
:105010003B460028C8D0149BDDF800B005934446F9
:105020002DE500230B93059B53440E930133002B76
:10503000089340F30181089D2E46F0E600230B9370
:10504000E3E6089B002B3FF767AC40F0D480404676
:105050000022414B494602F0EBFFDDE9002303F05B
:105060006DFADDF820804646002800F08B806FEA5C
:105070000A03099D05934146204600F0D9FD002E04
:105080007FF42BAEFBE45946204600F05BFF8346DD
:1050900054E5009B002B7FF463AD019BC3F3130326
:1050A000002B7FF490AD019B23F000473F0D3F059F
:1050B000002F00F01C82079B01330793069B0133EE
:1050C00006934FF0010980E50F9A002A00F0A781AE
:1050D00003F233430A9F079DF9E400F0B3FD5746FE
:1050E000064681462FE601462046CDF800C000F076
:1050F0009FFD0122DDF800C052E65846414600F00F
:10510000C7FF0028BFF68FAD059F594600232046F4
:105110000A22013F059700F095FD0B9B8346002B6B
:105120007FF4EEAD0E9B002B40F3F581089381E5F3
:105130000998FFF704BB009B002B7FF444ADACE75C
:10514000508C0008288D00080000F03F00001C4033
:105150000000E03F0000244000001440039B022BAD
:105160007FF765AD089B002B81D141460522204683
:1051700000F068FD80464146584600F089FF00284F
:105180007FF775AF059A09993123013205920B70AB
:105190004D1C70E7059A01320592099A312313706C
:1051A0008BE5DDF800B0039C69E4404602F0DAFECE
:1051B000DDE9002302F03CFF0022C24B02F086FD35
:1051C0000646A1F150770022BF4BDDE9000102F055
:1051D0007BFD32463B468046894603F0B9F90028FC
:1051E00040F0B680324607F100434046494603F09E
:1051F00091F9002852D04FF00008464637E759464B
:105200000A9A204600F09EFE834697E40A9B0C9A79
:105210000A97FB1A1A440C92002752E49DED107B6A
:105220004FF002088DED007B33E601250E950895C1
:10523000AA460021616401E61D46FAE7002A15DD51
:10524000594601222046CDF800C000F0CBFE414671
:10525000834600F01DFF0028DDF800C040F35481B4
:10526000BCF1390F00F011810CF1010CB24687F846
:1052700000C07D1C4E4620E504D11CF0010F01D07A
:105280000BE5154615F8013C302B05F1FF32F8D03F
:1052900013E5DDF800B0DDF854A04446DDE9102345
:1052A000CDE90023FFF727BB059B5D42002D00F0F1
:1052B000BD80864B05F00F0203EBC203D3E9002348
:1052C000DDE9100102F0B4FE2D11CDE9000100F07E
:1052D00027817F4E4FF00208EB0705D5D6E9002362
:1052E00002F0A6FE08F101086D1006F10806F3D1E0
:1052F000CDE90001E8E5059A01320592099A3023CB
:10530000137031231370FFF7BABB7168204600F0A9
:1053100069FC33699A1C0546920006F10C010C30B9
:10532000FDF76CFC20462946012200F05BFE814619
:10533000FFE4BCF1390F00F0A8800CF1010CB2467B
:1053400087F800C07D1C4E46B7E4B2464E4694E452
:105350004FF00008464615E75C4909F1FF3301EBC1
:10536000C30132461593D1E900013B4602F060FECD
:10537000DDE90067CDE912013946304603F0F2F865
:10538000054602F0EFFD02460B463046394602F074
:105390009BFC099A3035B9F1010F157006460F468E
:1053A00002F1010523D0099BCDF800B04B4498468B
:1053B000A946AB460022474B02F03AFE0F4606468E
:1053C00003F0D0F8054602F0CDFD303502460B461D
:1053D0003046394602F078FC09F8015BC145E9D155
:1053E000159B5D46DDF800B006460F461D440022C1
:1053F000394BDDE9120102F069FC32463B4603F00D
:1054000089F8002847D0149B059315F8018CFFF705
:1054100024BB079B089A9D1A0023FFF758BB169BD5
:105420000A9F079DC3F13603FFF751BB9DED107B2B
:105430004FF002088DED007B46E5089B002B3FF402
:10544000B4AE0E9D002D7FF729AF0022214BDDE980
:10545000000102F0EDFD06460F4608F10100CDE91E
:10546000006702F07FFD02460B463046394602F0E7
:10547000DFFD144B002202F029FC059B013B064690
:10548000A1F150771493A9463FE53922B2463A700C
:105490004E467D1C03E4DDE9122300200E4902F094
:1054A00013FC32463B4603F053F808B9F6E61546BE
:1054B00015F8013C302B05F1FF32F8D0149B059311
:1054C000FFF7DDBA00001C4000001440508C0008BB
:1054D000288D0008000024400000E03F4346DDF82E
:1054E00000B0A0461C46149B0593FFF7B6BAB94618
:1054F000FFF76BBBBCF1390FC7D0BAF1000F7FF7D4
:10550000B5AE05F1310CB1E67FF4B0AE1CF0010F81
:105510003FF4ACAEA4E6039B022B04DC0E9B05E635
:105520004FF00208D0E40E9B08931BE6039B022B6E
:10553000F9DC0E9BFFF7EFBB00256564294620468A
:1055400000F050FB4FF0FF3308930E9301230990B6
:10555000AA4620640B93FFF7CEB93FF44EABC0F1DF
:105560003C00FFF743BB01230B935CE50127FFF7EA
:105570008DB900BF38B5084B084DED1AAC1018BFF7
:10558000ED1805D0013C55F8043D9847002CF9D1A1
:10559000BDE8384003F002BB700A0020740A002006
:1055A000C2B110B510460C49144601F01DF808B9F7
:1055B0000A4810BD2046094901F016F80028F7D026
:1055C0002046074901F010F8044B00280CBF18468C
:1055D000002010BD01487047448C0008C88B0008AB
:1055E000108C00080048704734060020014B1868F2
:1055F000704700BF5406002000487047DC050020BB
:105600000020704700487047FC050020024B0A4606
:1056100001461868FFF7C4BFD8050020004870474E
:10562000FC0500202DE9F04F01F10B05162D83B08C
:10563000064627D935F0070500F1B680A94200F2E9
:10564000B38000F0CBFAB5F5FC7F22D2C24FE80858
:1056500007EBC003DC689C4200F0C8816368E16826
:10566000A56823F00303234430465A68E96042F0FA
:1056700001028D605A6000F0B3FA0834204603B08E
:10568000BDE8F08F102900F28F8000F0A7FA1025F6
:10569000DCE7680A00F08F80042800F25481A80932
:1056A00038304100AC4F07EB8101CC68A14206D1F4
:1056B0000CE0002A80F28280E468A14206D0636890
:1056C00023F003035A1B0F2AF3DD01380130A249EE
:1056D0003C6901F1080E744500F07D81636823F098
:1056E00003035A1B0F2A00F36381002AC1F814E058
:1056F000C1F810E073DAB3F5007F80F03981DB0880
:1057000001EBC3084FEAA30C4A68D8F80890C4F824
:105710000890012303FA0CF31343C4F80C804B6088
:10572000C8F80840C9F80C408210012494409C42FB
:1057300062D8234206D120F003006400234200F126
:105740000400FAD007EBC008C4468146DCF80C30F0
:105750009C4507D141E1002980F25181DB689C45DD
:1057600000F03B815A6822F00302511B0F29F2DD41
:105770001C46D3F80CC054F8088F5A1945F001099B
:1057800041F00105C3F804903046C8F80CC0CCF8CD
:1057900008807A613A61C2F80CE0C2F808E055600E
:1057A000515000F01DFA69E700240C2320463360B5
:1057B00003B0BDE8F08F7E213F2073E72344E1680A
:1057C0005A68A56842F00102E96030468D605A606F
:1057D00000F006FA0834204603B0BDE8F08F2344F9
:1057E00030465A6842F001025A6000F0F9F9083474
:1057F000204603B0BDE8F08FBC68636823F003085F
:10580000454504D8C5EB08030F2B00F38C80534BA0
:10581000DFF858A11A68DAF8003001332A4404EBA3
:10582000080B00F0508102F580520F3222F47F62A3
:1058300022F00F0211463046019200F0BFFEB0F197
:10584000FF3F8146019A00F04781834500F2EE80D8
:10585000434B1968CB451144196000F04281DAF8D6
:105860000000DFF808E101301BBFCBEB090B594406
:10587000CEF80090196019F0070100F00781C1F11E
:105880000800C1F58051814408314A44C2F30B023B
:10589000C2EB010A51463046019300F08FFE431CD3
:1058A000019B00F02C81C9EB0002524442F001023E
:1058B0001968C7F808905144BC42C9F8042019601F
:1058C000DFF89CA016D0B8F10F0F40F2EE806268AE
:1058D000A8F10C0323F00703E01802F001024FF0D7
:1058E000050E1A430F2B6260C0F804E0C0F808E010
:1058F00000F209811B4BBC681A68914288BF19608D
:10590000194B1A689142626888BF196022F003023D
:105910009542A2EB050301D80F2B04DC304600F0C2
:105920005FF90024AAE6621943F0010345F001057E
:1059300065603046BA60536000F052F90834204682
:1059400003B0BDE8F08F142868D9542800F297807E
:10595000280B6E304100A5E658060020AC0A002056
:10596000B00A0020A80A0020A40A0020640A00202F
:105970005A0A042A55D9142A00F2A7805B324FEA4A
:10598000420C07EB8C0CDFF8BC81DCF80810614599
:105990007FD04A6822F00302934202D289688C4584
:1059A000F7D1CA687B68E260A1609460CC60BBE616
:1059B000631942F0010745F00105656030464B610F
:1059C0000B61C3F80CE0C3F808E05F609A5008343C
:1059D00000F006F952E64B68A6E609F1010919F054
:1059E000030F0CF1080C7FF4B1AE2CE004F10803B6
:1059F0006469A34208BF02303FF469AE2EE61A4440
:105A00001C465168DB6854F8085F41F001015160A1
:105A10003046EB609D6000F0E3F82FE65B3041001C
:105A200040E69A0938324FEA420CAAE7BC42454B9D
:105A30003FF40EAF9C68626822F0030268E7D8F872
:105A4000008098457CD110F0030FA8F1080300F105
:105A5000FF30F4D17B6823EA04037B6064009C423E
:105A60003FF6CAAE002C3FF4C7AE234248467FF44F
:105A700069AE6400234200F10400FAD062E6B0F59A
:105A8000AA7F18D8E80B773041000BE64FF480511D
:105A9000FBE6D8F8043092104FF0010C0CFA02F239
:105AA0001343C8F804300A467DE70123C9F80430DF
:105AB0004C4600222CE740F2545398421CD8A80CC4
:105AC0007C304100EEE51032B4E6542A23D81A0B9C
:105AD0006E324FEA420C54E7BC68626822F003025F
